:100000000C9438000C949C050C9408060C9474060F
:100010000C94E0060C944C070C9455000C94230EA1
:100020000C9455000C94D10D0C94B8070C94240832
:100030000C9490080C94FC080C9468090C94D40956
:100040000C94400A0C94AC0A0C94180B0C94840B7E
:100050000C94F00B0C945C0C0C94C80CA300850061
:1000600088008B008E009100940097009A009D00FC
:1000700011241FBECFEFD4E0DEBFCDBF11E0A0E062
:10008000B1E0E4ECF3E202C005900D92A830B107B4
:10009000D9F724E0A8E0B1E001C01D92AB38B20767
:1000A000E1F70E94E9030C94E0110C940000E1E6F2
:1000B000F0E080E88083108287EB8093E50087E0A2
:1000C0008093E6008FE08093E70080EC8093E4006B
:1000D000089585B1806D85B98EB18C608EB98DB370
:1000E000806C8DBBECE6F0E08081806D8083EBE678
:1000F000F0E080818C60808308958A30910500F55E
:10010000FC01E25DFF4F0C944D1180E890E20895F0
:1001100081E19EE1089581E19BE1089580E59BE006
:10012000089581E49BE1089581E49FE1089581E1D0
:1001300091E0089581E59FE1089581E59BE00895B0
:1001400080E090E0089581E595E10895EF92FF92B7
:100150001F93CF93DF9300D0CDB7DEB71A821982F9
:100160006630710508F0FEC190ED980F9A3028F0C6
:100170008AE090E09A83898304C090E0C0979A83D4
:1001800089836115710509F04EC00F2EFCEEEF2E2C
:10019000F12CF02DF701108189819A810E947D0058
:1001A000107F8F70812BF70180830F2EF1EFEF2EE0
:1001B000F12CF02DF701108189819A810E947D0038
:1001C000807F99279595879595958795959587959E
:1001D00095958795107F812BF70180830F2EF6EF81
:1001E000EF2EF12CF02DF701108189819A810E9468
:1001F0007D0088279F70107F192BF70110830F2E29
:10020000FBEFEF2EF12CF02DF701108189819A81FF
:100210000E947D00107F9595959595959595912BCC
:10022000F70190839FC16130710509F050C00F2E16
:10023000FCEEEF2EF12CF02DF701108189819A81CF
:100240000E947D001F7082959295907F9827807FF5
:100250009827812BF70180830F2EF1EFEF2EF12CE1
:10026000F02DF701108189819A810E947D001F7015
:10027000807F812BF70180830F2EF6EFEF2EF12C7C
:10028000F02DF701108189819A810E947D008827D5
:100290009F70959587959595879595958795959553
:1002A00087951F70812BF70180830F2EFBEFEF2EB8
:1002B000F12CF02DF701108189819A810E947D0037
:1002C0008827907F1F70192BF70110834BC1623074
:1002D000710509F04EC00F2EFDEEEF2EF12CF02D22
:1002E000F701108189819A810E947D00107F8F70B3
:1002F000812BF70180830F2EF2EFEF2EF12CF02DE2
:10030000F701108189819A810E947D00807F992761
:1003100095958795959587959595879595958795C5
:10032000107F812BF70180830F2EF7EFEF2EF12C3A
:10033000F02DF701108189819A810E947D00882724
:100340009F70107F192BF70110830F2EFCEFEF2EFB
:10035000F12CF02DF701108189819A810E947D0096
:10036000107F9595959595959595912BF70190838F
:10037000F9C06330710509F050C00F2EFDEEEF2E6D
:10038000F12CF02DF701108189819A810E947D0066
:100390001F7082959295907F9827807F9827812B58
:1003A000F70180830F2EF2EFEF2EF12CF02DF701E5
:1003B000108189819A810E947D001F70807F812B2E
:1003C000F70180830F2EF7EFEF2EF12CF02DF701C0
:1003D000108189819A810E947D0088279F70959560
:1003E00087959595879595958795959587951F7090
:1003F000812BF70180830F2EFCEFEF2EF12CF02DD7
:10040000F701108189819A810E947D008827907F61
:100410001F70192BF7011083A5C06430710509F016
:100420004EC00F2EFEEEEF2EF12CF02DF7011081B5
:1004300089819A810E947D00107F8F70812BF70146
:1004400080830F2EF3EFEF2EF12CF02DF7011081AA
:1004500089819A810E947D00807F99279595879553
:10046000959587959595879595958795107F812B7F
:10047000F70180830F2EF8EFEF2EF12CF02DF7010E
:10048000108189819A810E947D0088279F70107F4A
:10049000192BF70110830F2EFDEFEF2EF12CF02D0D
:1004A000F701108189819A810E947D00107F9595C6
:1004B000959595959595912BF701908353C065304F
:1004C000710509F04FC00F2EFEEEEF2EF12CF02D2E
:1004D000F701108189819A810E947D001F708295A9
:1004E0009295907F9827807F9827812BF7018083B2
:1004F0000F2EF3EFEF2EF12CF02DF70110818981F3
:100500009A810E947D001F70807F812BF70180837C
:100510000F2EF8EFEF2EF12CF02DF70110818981CD
:100520009A810E947D0088279F7095958795959563
:10053000879595958795959587951F70812BF701E0
:1005400080830F2EFDEFEF2EF12CF02DF70110819F
:1005500089819A810E947D008827907F1F70192BC6
:10056000F70110830F900F90DF91CF911F91FF90B3
:10057000EF9008958F929F92AF92BF92CF92DF92A9
:10058000EF92FF92CF93DF934B015C01EA0124E6E7
:1005900030E040E050E00E942E110F2EFAE0CF2E06
:1005A000D12CE12CF12CF02DA70196010E942E11E7
:1005B000BE0180E3820F0E94A6002196C501B4010E
:1005C000A70196010E942E11862FBE01805D0E9418
:1005D000A600DF91CF91FF90EF90DF90CF90BF907A
:1005E000AF909F908F900895CF93DF93EC017D8320
:1005F0006C83798768875F834E831D861C861F8680
:100600001E868A859B85892B41F40E9457000E9493
:10061000690081E090E09B878A87EC81FD81648599
:100620007585072E000C880B990B40E050E00E9466
:10063000BA02EE81FF8164857585072E000C880B58
:10064000990B44E050E00E94BA02DF91CF910895E7
:100650001F9B0BC01E9B0CC01C9B0DC0629B0EC041
:10066000639B0FC080E090E0089587E090E00895DC
:1006700086E090E0089584E090E0089582E090E0C4
:10068000089583E090E00895EF92FF920F931F93F7
:10069000CF93DF9300D0CDB7DEB78C010E94280343
:1006A0009A83898389819A81079721F5D8011896C1
:1006B000ED91FC911997848595850197958784879D
:1006C0001C96ED90FC901D9718968D919C91199712
:1006D0000E94D204BC01990F880B990BA7010E94BC
:1006E000BA0242E050E065E270E080E090E00E94F3
:1006F000BA025FC089819A81029781F4F8018481EE
:100700009581918780871586148642E050E060E2EB
:1007100070E080E090E00E94BA024BC089819A812B
:100720000397C1F4D80116968D919C91179719964D
:100730009C938E93189784E090E01D969C938E93E3
:100740001C9742E050E061E270E080E090E00E949F
:10075000BA022FC089819A810697F9F440E050E0EF
:100760006AEC74E0C80108960E94E90FF801E4847D
:10077000F584808591850E94D204BC01990F880B75
:10078000990BA7010E94BA0242E050E064E270E0D7
:1007900080E090E00E94BA020CC089819A8104979F
:1007A00041F042E050E062E270E080E090E00E94C0
:1007B000BA0289819A81D8011F969C938E931E97C5
:1007C0000F900F90DF91CF911F910F91FF90EF90BD
:1007D0000895CF92DF92EF92FF920F931F93209193
:1007E000340130913501409136015091370102E0DA
:1007F00010E064E070E086E191E00E94BA0420918C
:10080000340130913501409136015091370101E0BA
:1008100010E066E070E088E091E00E94BA0448E0F1
:1008200051E066E171E084E291E00E94F40241E06F
:1008300064E473E084E291E00E94E41042E064E446
:1008400073E084E291E00E94E410C12CD12C0F2EC1
:10085000F1E7EF2EF4E0FF2EF02D06E111E020E0AD
:1008600030E0A90160E070E0CB010E94D80E08E002
:1008700011E020E030E0A90160E070E0CB010E94CF
:10088000D80E40E050E060E070E080E090E00E9430
:10089000FE101F910F91FF90EF90DF90CF90089581
:1008A0008EB190E0062E02C0959587950A94E2F7E6
:1008B00080FF0CC02EB181E090E002C0880F991F2C
:1008C0006A95E2F7809582238EB908952EB181E072
:1008D00090E002C0880F991F6A95E2F7822B8EB9CB
:1008E0000895CF92DF92EF92FF920F931F93CF93D1
:1008F000DF93EC018C859D85892B41F048855985D6
:1009000060E574E0CE0104960E94E90F6C857D8558
:1009100084EF91E00E941A112DE730E0DB010E9484
:1009200053118B019C01992324F40D5F1F4F2F4F0E
:100930003F4FC901B801959587957795679595952E
:10094000879577956795C12CD12C0F2EF1E7EF2E67
:10095000F4E0FF2EF02D8E0120E030E0A9010E948E
:10096000D80EDF91CF911F910F91FF90EF90DF9004
:10097000CF9008950F931F93FC01718760871386B2
:1009800012862483358346835783158704871F91F6
:100990000F910895FC01248535852F5F3F4F3587E2
:1009A00024870895FC01848595850895CF93DF936E
:1009B00000D000D0CDB7DEB78BE292E02BE033E081
:1009C000FC01709791838083409682179307C1F74B
:1009D0001092FC021092FB02E6E6F1E083E891E05F
:1009E0009183808380EA91E0968F858FADEBB1E0B3
:1009F000B3AFA2AF1D921C92FA83E983E7E6F3E05E
:100A0000FC83EB8389819A8106960E949F118B81DA
:100A10009C81E981FA81978B868B918F808F86E705
:100A200090E1948F838F158214827D96FA83E983F7
:100A3000EB81FC81E05AFF4FFC83EB8389819A8133
:100A40008A5D9140F9F6EEEFF1E011821082158295
:100A5000148213821282E1E6F0E080E88083108243
:100A6000109285001092840084E08093810081E0E0
:100A700080936F000F900F900F900F90DF91CF91A8
:100A80000895CF93DF9300D0CDB7DEB79A838983E3
:100A9000809100019091010106960E949F11892B7F
:100AA00059F489819A81909301018093000161E05A
:100AB00070E006960E94BF110F900F90DF91CF91CA
:100AC00008950F931F93CF93DF93E0914001F0912E
:100AD0004101309761F180910401909105010097E7
:100AE00031F1C0910201D0910301AA81BB8110971D
:100AF00079F0468157816085718516960D911D911B
:100B00002D913C911997401B510B620B730B7AF49A
:100B1000FC01208131813093050120930401D183B0
:100B2000C08390930301809302010E944105DF91ED
:100B3000CF911F910F9108951F920F920FB60F92B0
:100B400011242F933F934F935F936F937F938F93D2
:100B50009F93AF93BF93EF93FF9320913801309110
:100B600039014091840050918500C901032E000C89
:100B7000AA0BBB0BDC019927882760E070E0842B6F
:100B8000952BA62BB72B80933A0190933B01A09312
:100B90003C01B0933D01B09B1BC04091840050913B
:100BA0008500C9010196092E000CAA0BBB0BDC01C4
:100BB0009927882760E070E0842B952BA62BB72B14
:100BC00080933A0190933B01A0933C01B0933D0187
:100BD000E091DA01F091DB01309739F060E070E0EC
:100BE000809142019091430109950E946105FF9116
:100BF000EF91BF91AF919F918F917F916F915F9195
:100C00004F913F912F910F900FBE0F901F9018950D
:100C10001F920F920FB60F9211242F933F934F9371
:100C20005F936F937F938F939F93AF93BF93EF9354
:100C3000FF93209138013091390140918400509107
:100C40008500C901032E000CAA0BBB0BDC01992700
:100C5000882760E070E0842B952BA62BB72B809320
:100C60003A0190933B01A0933C01B0933D01B09BAE
:100C70001BC04091840050918500C9010196092E46
:100C8000000CAA0BBB0BDC019927882760E070E001
:100C9000842B952BA62BB72B80933A0190933B0185
:100CA000A0933C01B0933D01E091DC01F091DD01A6
:100CB000309739F061E070E08091440190914501F6
:100CC00009950E946105FF91EF91BF91AF919F91AE
:100CD0008F917F916F915F914F913F912F910F90E5
:100CE0000FBE0F901F9018951F920F920FB60F9284
:100CF00011242F933F934F935F936F937F938F9321
:100D00009F93AF93BF93EF93FF932091380130915E
:100D100039014091840050918500C901032E000CD7
:100D2000AA0BBB0BDC019927882760E070E0842BBD
:100D3000952BA62BB72B80933A0190933B01A09360
:100D40003C01B0933D01B09B1BC040918400509189
:100D50008500C9010196092E000CAA0BBB0BDC0112
:100D60009927882760E070E0842B952BA62BB72B62
:100D700080933A0190933B01A0933C01B0933D01D5
:100D8000E091DE01F091DF01309739F062E070E030
:100D9000809146019091470109950E946105FF915C
:100DA000EF91BF91AF919F918F917F916F915F91E3
:100DB0004F913F912F910F900FBE0F901F9018955C
:100DC0001F920F920FB60F9211242F933F934F93C0
:100DD0005F936F937F938F939F93AF93BF93EF93A3
:100DE000FF93209138013091390140918400509156
:100DF0008500C901032E000CAA0BBB0BDC0199274F
:100E0000882760E070E0842B952BA62BB72B80936E
:100E10003A0190933B01A0933C01B0933D01B09BFC
:100E20001BC04091840050918500C9010196092E94
:100E3000000CAA0BBB0BDC019927882760E070E04F
:100E4000842B952BA62BB72B80933A0190933B01D3
:100E5000A0933C01B0933D01E091E001F091E101EC
:100E6000309739F063E070E080914801909149013A
:100E700009950E946105FF91EF91BF91AF919F91FC
:100E80008F917F916F915F914F913F912F910F9033
:100E90000FBE0F901F9018951F920F920FB60F92D2
:100EA00011242F933F934F935F936F937F938F936F
:100EB0009F93AF93BF93EF93FF93209138013091AD
:100EC00039014091840050918500C901032E000C26
:100ED000AA0BBB0BDC019927882760E070E0842B0C
:100EE000952BA62BB72B80933A0190933B01A093AF
:100EF0003C01B0933D01B09B1BC0409184005091D8
:100F00008500C9010196092E000CAA0BBB0BDC0160
:100F10009927882760E070E0842B952BA62BB72BB0
:100F200080933A0190933B01A0933C01B0933D0123
:100F3000E091E201F091E301309739F064E070E074
:100F400080914A0190914B0109950E946105FF91A2
:100F5000EF91BF91AF919F918F917F916F915F9131
:100F60004F913F912F910F900FBE0F901F901895AA
:100F70001F920F920FB60F9211242F933F934F930E
:100F80005F936F937F938F939F93AF93BF93EF93F1
:100F9000FF932091380130913901409184005091A4
:100FA0008500C901032E000CAA0BBB0BDC0199279D
:100FB000882760E070E0842B952BA62BB72B8093BD
:100FC0003A0190933B01A0933C01B0933D01B09B4B
:100FD0001BC04091840050918500C9010196092EE3
:100FE000000CAA0BBB0BDC019927882760E070E09E
:100FF000842B952BA62BB72B80933A0190933B0122
:10100000A0933C01B0933D01E091E401F091E50132
:10101000309739F065E070E080914C0190914D017E
:1010200009950E946105FF91EF91BF91AF919F914A
:101030008F917F916F915F914F913F912F910F9081
:101040000FBE0F901F9018951F920F920FB60F9220
:1010500011242F933F934F935F936F937F938F93BD
:101060009F93AF93BF93EF93FF93209138013091FB
:1010700039014091840050918500C901032E000C74
:10108000AA0BBB0BDC019927882760E070E0842B5A
:10109000952BA62BB72B80933A0190933B01A093FD
:1010A0003C01B0933D01B09B1BC040918400509126
:1010B0008500C9010196092E000CAA0BBB0BDC01AF
:1010C0009927882760E070E0842B952BA62BB72BFF
:1010D00080933A0190933B01A0933C01B0933D0172
:1010E000E091E601F091E701309739F066E070E0B9
:1010F00080914E0190914F0109950E946105FF91E9
:10110000EF91BF91AF919F918F917F916F915F917F
:101110004F913F912F910F900FBE0F901F901895F8
:101120001F920F920FB60F9211242F933F934F935C
:101130005F936F937F938F939F93AF93BF93EF933F
:10114000FF932091380130913901409184005091F2
:101150008500C901032E000CAA0BBB0BDC019927EB
:10116000882760E070E0842B952BA62BB72B80930B
:101170003A0190933B01A0933C01B0933D01B09B99
:101180001BC04091840050918500C9010196092E31
:10119000000CAA0BBB0BDC019927882760E070E0EC
:1011A000842B952BA62BB72B80933A0190933B0170
:1011B000A0933C01B0933D01E091E801F091E90179
:1011C000309739F067E070E08091500190915101C3
:1011D00009950E946105FF91EF91BF91AF919F9199
:1011E0008F917F916F915F914F913F912F910F90D0
:1011F0000FBE0F901F9018951F920F920FB60F926F
:1012000011242F933F934F935F936F937F938F930B
:101210009F93AF93BF93EF93FF9320913801309149
:1012200039014091840050918500C901032E000CC2
:10123000AA0BBB0BDC019927882760E070E0842BA8
:10124000952BA62BB72B80933A0190933B01A0934B
:101250003C01B0933D01B09B1BC040918400509174
:101260008500C9010196092E000CAA0BBB0BDC01FD
:101270009927882760E070E0842B952BA62BB72B4D
:1012800080933A0190933B01A0933C01B0933D01C0
:10129000E091EA01F091EB01309739F068E070E0FD
:1012A000809152019091530109950E946105FF912F
:1012B000EF91BF91AF919F918F917F916F915F91CE
:1012C0004F913F912F910F900FBE0F901F90189547
:1012D0001F920F920FB60F9211242F933F934F93AB
:1012E0005F936F937F938F939F93AF93BF93EF938E
:1012F000FF93209138013091390140918400509141
:101300008500C901032E000CAA0BBB0BDC01992739
:10131000882760E070E0842B952BA62BB72B809359
:101320003A0190933B01A0933C01B0933D01B09BE7
:101330001BC04091840050918500C9010196092E7F
:10134000000CAA0BBB0BDC019927882760E070E03A
:10135000842B952BA62BB72B80933A0190933B01BE
:10136000A0933C01B0933D01E091EC01F091ED01BF
:10137000309739F069E070E0809154019091550107
:1013800009950E946105FF91EF91BF91AF919F91E7
:101390008F917F916F915F914F913F912F910F901E
:1013A0000FBE0F901F9018951F920F920FB60F92BD
:1013B00011242F933F934F935F936F937F938F935A
:1013C0009F93AF93BF93EF93FF9320913801309198
:1013D00039014091840050918500C901032E000C11
:1013E000AA0BBB0BDC019927882760E070E0842BF7
:1013F000952BA62BB72B80933A0190933B01A0939A
:101400003C01B0933D01B09B1BC0409184005091C2
:101410008500C9010196092E000CAA0BBB0BDC014B
:101420009927882760E070E0842B952BA62BB72B9B
:1014300080933A0190933B01A0933C01B0933D010E
:10144000E091EE01F091EF01309739F06AE070E041
:10145000809156019091570109950E946105FF9175
:10146000EF91BF91AF919F918F917F916F915F911C
:101470004F913F912F910F900FBE0F901F90189595
:101480001F920F920FB60F9211242F933F934F93F9
:101490005F936F937F938F939F93AF93BF93EF93DC
:1014A000FF9320913801309139014091840050918F
:1014B0008500C901032E000CAA0BBB0BDC01992788
:1014C000882760E070E0842B952BA62BB72B8093A8
:1014D0003A0190933B01A0933C01B0933D01B09B36
:1014E0001BC04091840050918500C9010196092ECE
:1014F000000CAA0BBB0BDC019927882760E070E089
:10150000842B952BA62BB72B80933A0190933B010C
:10151000A0933C01B0933D01E091F001F091F10105
:10152000309739F06BE070E080915801909159014B
:1015300009950E946105FF91EF91BF91AF919F9135
:101540008F917F916F915F914F913F912F910F906C
:101550000FBE0F901F9018951F920F920FB60F920B
:1015600011242F933F934F935F936F937F938F93A8
:101570009F93AF93BF93EF93FF93209138013091E6
:1015800039014091840050918500C901032E000C5F
:10159000AA0BBB0BDC019927882760E070E0842B45
:1015A000952BA62BB72B80933A0190933B01A093E8
:1015B0003C01B0933D01B09B1BC040918400509111
:1015C0008500C9010196092E000CAA0BBB0BDC019A
:1015D0009927882760E070E0842B952BA62BB72BEA
:1015E00080933A0190933B01A0933C01B0933D015D
:1015F000E091F201F091F301309739F06CE070E086
:1016000080915A0190915B0109950E946105FF91BB
:10161000EF91BF91AF919F918F917F916F915F916A
:101620004F913F912F910F900FBE0F901F901895E3
:101630001F920F920FB60F9211242F933F934F9347
:101640005F936F937F938F939F93AF93BF93EF932A
:10165000FF932091380130913901409184005091DD
:101660008500C901032E000CAA0BBB0BDC019927D6
:10167000882760E070E0842B952BA62BB72B8093F6
:101680003A0190933B01A0933C01B0933D01B09B84
:101690001BC04091840050918500C9010196092E1C
:1016A000000CAA0BBB0BDC019927882760E070E0D7
:1016B000842B952BA62BB72B80933A0190933B015B
:1016C000A0933C01B0933D01E091F401F091F5014C
:1016D000309739F06DE070E080915C0190915D0190
:1016E00009950E946105FF91EF91BF91AF919F9184
:1016F0008F917F916F915F914F913F912F910F90BB
:101700000FBE0F901F9018951F920F920FB60F9259
:1017100011242F933F934F935F936F937F938F93F6
:101720009F93AF93BF93EF93FF9320913801309134
:1017300039014091840050918500C901032E000CAD
:10174000AA0BBB0BDC019927882760E070E0842B93
:10175000952BA62BB72B80933A0190933B01A09336
:101760003C01B0933D01B09B1BC04091840050915F
:101770008500C9010196092E000CAA0BBB0BDC01E8
:101780009927882760E070E0842B952BA62BB72B38
:1017900080933A0190933B01A0933C01B0933D01AB
:1017A000E091F601F091F701309739F06EE070E0CA
:1017B00080915E0190915F0109950E946105FF9102
:1017C000EF91BF91AF919F918F917F916F915F91B9
:1017D0004F913F912F910F900FBE0F901F90189532
:1017E0001F920F920FB60F9211242F933F934F9396
:1017F0005F936F937F938F939F93AF93BF93EF9379
:10180000FF9320913801309139014091840050912B
:101810008500C901032E000CAA0BBB0BDC01992724
:10182000882760E070E0842B952BA62BB72B809344
:101830003A0190933B01A0933C01B0933D01B09BD2
:101840001BC04091840050918500C9010196092E6A
:10185000000CAA0BBB0BDC019927882760E070E025
:10186000842B952BA62BB72B80933A0190933B01A9
:10187000A0933C01B0933D01E091F801F091F90192
:10188000309739F06FE070E08091600190916101D4
:1018900009950E946105FF91EF91BF91AF919F91D2
:1018A0008F917F916F915F914F913F912F910F9009
:1018B0000FBE0F901F9018951F920F920FB60F92A8
:1018C00011242F933F934F935F936F937F938F9345
:1018D0009F93AF93BF93EF93FF9320913801309183
:1018E00039014091840050918500C901032E000CFC
:1018F000AA0BBB0BDC019927882760E070E0842BE2
:10190000952BA62BB72B80933A0190933B01A09384
:101910003C01B0933D01B09B1BC0409184005091AD
:101920008500C9010196092E000CAA0BBB0BDC0136
:101930009927882760E070E0842B952BA62BB72B86
:1019400080933A0190933B01A0933C01B0933D01F9
:10195000E091FA01F091FB01309739F060E170E01D
:10196000809162019091630109950E946105FF9148
:10197000EF91BF91AF919F918F917F916F915F9107
:101980004F913F912F910F900FBE0F901F90189580
:101990001F920F920FB60F9211242F933F934F93E4
:1019A0005F936F937F938F939F93AF93BF93EF93C7
:1019B000FF9320913801309139014091840050917A
:1019C0008500C901032E000CAA0BBB0BDC01992773
:1019D000882760E070E0842B952BA62BB72B809393
:1019E0003A0190933B01A0933C01B0933D01B09B21
:1019F0001BC04091840050918500C9010196092EB9
:101A0000000CAA0BBB0BDC019927882760E070E073
:101A1000842B952BA62BB72B80933A0190933B01F7
:101A2000A0933C01B0933D01E091FC01F091FD01D8
:101A3000309739F061E170E0809164019091650127
:101A400009950E946105FF91EF91BF91AF919F9120
:101A50008F917F916F915F914F913F912F910F9057
:101A60000FBE0F901F901895EF92FF920F931F9348
:101A7000CF93DF937B01EB01A881B981109761F1CE
:101A8000FC01068117812085318516964D915D9167
:101A90006D917C911997041715072607370714F4E1
:101AA0001BC0DF01ED91FC911197309749F0468101
:101AB00057816085718504171507260737078CF74E
:101AC000EC01F983E883109721F4F7019183808377
:101AD00007C08D939C9304C0EC01B983A883F5CF14
:101AE000DF91CF911F910F91FF90EF900895EF92AA
:101AF000FF920F931F93CF93DF937B01EB01A8819C
:101B0000B981109761F1FC01028113812481358133
:101B100012964D915D916D917C9115970417150763
:101B20002607370714F41BC0DF01ED91FC911197D4
:101B3000309749F0428153816481758104171507FC
:101B4000260737078CF7EC01F983E883109721F417
:101B5000F7019183808307C08D939C9304C0EC01AF
:101B6000B983A883F5CFDF91CF911F910F91FF909B
:101B7000EF900895DC01ED91FC911197309759F4A5
:101B80008FEF8093EC008093ED008093EE0081E076
:101B900083BF8895FDCF208131812D933C93CF0168
:101BA00008951F920F920FB60F9211242F933F9317
:101BB0004F935F936F937F938F939F93EF93FF93D5
:101BC0008091380190913901019690933901809369
:101BD0003801E0913E01F0913F01309701F14281DF
:101BE00053816481758186179707C9F4CA012091D2
:101BF000840030918500421B530B4130510529F47C
:101C00008091840090918500019690938900809343
:101C10008800EFE6F0E080818260808305C0EFE617
:101C2000F0E080818D7F8083FF91EF919F918F9174
:101C30007F916F915F914F913F912F910F900FBEC8
:101C40000F901F9018951F920F920FB60F921124AC
:101C5000CF92DF92EF92FF922F933F934F935F9338
:101C60006F937F938F939F93AF93BF93EF93FF9364
:101C7000C0903801D09039012091840030918500C6
:101C8000B0990FC00D2C000CEE08FF08D601992763
:101C900088276901E12CF12CC82AD92AEA2AFB2AD3
:101CA00015C020918400309185008FEFC81AD80AA2
:101CB0000D2C000CEE08FF08D60199278827690132
:101CC000E12CF12CC82AD92AEA2AFB2AE0913E010C
:101CD000F0913F01309709F442C082819381A48141
:101CE000B5818C199D09AE09BF09181619061A0687
:101CF0001B06ECF18EE391E00E94BA0D60E471E006
:101D00000E94340DE0913E01F0913F01309739F18E
:101D100082819381A481B5818C199D09AE09BF0987
:101D2000181619061A061B062CF721C09C014091B3
:101D3000840050918500841B950B019731F420910C
:101D40008400309185002F5F3F4F309389002093AE
:101D50008800EFE6F0E080818260808305C0EFE6D6
:101D6000F0E080818D7F80830E9461050CC08281BC
:101D70009381A481B58120913801309139012A17CE
:101D80003B0769F7D3CFFF91EF91BF91AF919F913F
:101D90008F917F916F915F914F913F912F91FF9024
:101DA000EF90DF90CF900F900FBE0F901F9018957F
:101DB0003F924F925F926F927F928F929F92AF92DB
:101DC000BF92CF92DF92EF92FF920F931F93CF9328
:101DD000DF932B013C0149015A018FB78078382EDF
:101DE000F89486E091E00E94BA0DEC011B870A8707
:101DF000FD86EC86DF86CE86332061F0E09100011F
:101E0000F09101010280F381E02D82819381A48110
:101E1000B58108C080913A0190913B01A0913C01AD
:101E2000B0913D01480E591E6A1E7B1E4A825B829C
:101E30006C827D82181419041A041B0444F00F2EBE
:101E400088248A94982CA82CFFE7BF2EF02D840CB0
:101E5000951CA61CB71C8E829F82A886B98680918D
:101E60003801909139014091840050918500B099DA
:101E70000EC0092E000CAA0BBB0BDC01992788278A
:101E800060E070E0842B952BA62BB72B13C020911C
:101E90008400309185000196092E000CAA0BBB0B23
:101EA000DC0199278827A90160E070E0842B952B3D
:101EB000A62BB72B481A590A6A0A7B0A1414150470
:101EC00016041704ACF56EE371E0CE010E94770DA5
:101ED000E0913E01F0913F01309721F182819381A1
:101EE000A481B58120913801309139012A173B072F
:101EF000C9F49C014091840050918500841B950B8E
:101F0000019731F420918400309185002F5F3F4F7D
:101F10003093890020938800EFE6F0E080818260B2
:101F2000808341C0EFE6F0E080818D7F80833BC0FD
:101F300060E471E0CE010E94340D3320B9F180914C
:101F4000040190910501009781F1E0910201F09167
:101F50000301209140013091410102811381D90197
:101F600016964D915D916D917C911997D8011696B9
:101F70000D911D912D913C911997401B510B620BB6
:101F8000730B9AF4DC012D913C911197309305016C
:101F900020930401ED93FC9390930301809302013D
:101FA0000E94410502C0332009F07894CE01DF91F0
:101FB000CF911F910F91FF90EF90DF90CF90BF9046
:101FC000AF909F908F907F906F905F904F903F90D9
:101FD0000895CF92DF92EF92FF920F931F93CF93CA
:101FE000DF93EC017B016A011FB71078F894A88198
:101FF000B981109761F11496ED91FC911597309786
:1020000041F0A081B1811496ED91FC911597309724
:10201000C1F720910001309101012A173B0721F0FF
:10202000112309F43DC007C0112309F43CC0789482
:102030008FEF9FEF52C08A819B810097D1F1FC0105
:102040001582148236C0789480E090E046C080917A
:1020500000019091010199838883112329F08A81DD
:102060009B81019709F07894B601CE01F70109959B
:10207000F82E092F8FB7F894198218828A819B81D4
:102080008230910538F01B821A82FC01158214827D
:102090000E944105112351F078948F2D902F1DC07F
:1020A0008FEF9FEF1AC08FEF9FEF17C08F2D902FEC
:1020B00014C03B832A83F901D583C483CD010E94D8
:1020C0004105E0910001F091010182819381892B0A
:1020D00009F4B9CFF983E883C2CFDF91CF911F9183
:1020E0000F91FF90EF90DF90CF9008950091000145
:1020F0001091010180E491E00E94BA0DEC01D80139
:1021000013969C938E93129778944E855F856C8579
:102110007D858A859B850E94E90F8FB7F894809111
:1021200006019091070199838883D0930701C0939A
:102130000601E0910201F091030100811181E801A3
:102140002A813B81A0914001B09141011097C1F0DB
:102150002115310559F216968D919D910D90BC91E6
:10216000A02DE9014E815F8168857985841B950BDF
:10217000A60BB70B181619061A061B060CF0B6CFDD
:1021800010930301009302018091040190910501D5
:1021900091838083F0930501E0930401A0910201F3
:1021A000B09103011496ED91FC911597309741F091
:1021B000A081B1811496ED91FC9115973097C1F7EC
:1021C000CD010E94410592CF4231B8F42FB7F89467
:1021D00050E0440F551FFA01EE5BFE4F9183808360
:1021E000FA01E652FE4F7183608341E050E0FC014A
:1021F0005383428322230CF4789408958C017B014D
:102200006A018FB7F8940E94D6047894E114F1041F
:1022100041F020E030E0A90160E070E0CB010E94D5
:10222000D80E8FB7F8940E946105789481E083BF3F
:102230008895FDCF97FB072E16F4009407D077FD05
:1022400009D00E945A1107FC05D03EF49095819563
:102250009F4F0895709561957F4F0895052E97FBC8
:102260001EF400940E94451157FD07D00E946E1184
:1022700007FC03D04EF40C944511509540953095D1
:1022800021953F4F4F4F5F4F0895909580957095E2
:1022900061957F4F8F4F9F4F0895EE0FFF1F059061
:1022A000F491E02D09940E949011B7FF0895821BCC
:1022B000930B0895AA1BBB1B51E107C0AA1FBB1FAC
:1022C000A617B70710F0A61BB70B881F991F5A95C2
:1022D000A9F780959095BC01CD010895A1E21A2E31
:1022E000AA1BBB1BFD010DC0AA1FBB1FEE1FFF1FBA
:1022F000A217B307E407F50720F0A21BB30BE40B0A
:10230000F50B661F771F881F991F1A9469F7609550
:102310007095809590959B01AC01BD01CF0108950A
:10232000A29FB001B39FC001A39F700D811D112416
:10233000911DB29F700D811D1124911D0895DC0126
:102340002D923D924D925D926D927D928D929D92D5
:10235000AD92BD92CD92DD92ED92FD920D931D93C3
:10236000CD93DD93FF91EF918DB78D938EB78D93C4
:102370008FB78D93ED93FD93882799270994DC01FE
:10238000CB0181309105811D2D903D904D905D9048
:102390006D907D908D909D90AD90BD90CD90DD9095
:1023A000ED90FD900D911D91CD91DD91ED91FD91FF
:1023B0000D90F894FEBF0FBEEDBFED91FD91099415
:0423C000F894FFCFBF
:0823C400FE01FE0166011B028F
:00000001FF
