S01400006C616262345F6430303033652E7372656360
S11300000C9439000C948D030C94F9030C9465043E
S11300100C94D1040C943D050C9456000C94D10B13
S11300200C9456000C947F0B0C94A9050C941506A3
S11300300C9481060C94ED060C9459070C94C50796
S11300400C9431080C949D080C9409090C947509BE
S11300500C94E1090C944D0A0C94B90AA200860090
S1130060A50089008C008F009200950098009B00E9
S11300709E0011241FBECFEFD4E0DEBFCDBF11E040
S1130080A0E0B1E0E0E2FAE102C005900D92A630F2
S1130090B107D9F724E0A6E0B1E001C01D92A9356B
S11300A0B207E1F70E9422030C940E0D0C94000099
S11300B0E1E6F0E080E88083108287EB8093E5003E
S11300C087E08093E6008FE08093E70080EC8093E4
S11300D0E400089585B1806D85B98EB18C608EB9C8
S11300E08DB3806C8DBBECE6F0E08081806D808305
S11300F0EBE6F0E080818C60808308958B3091057D
S113010000F5FC01E25DFF4F0C94A50C80E890E241
S1130110089581E19BE1089580E59BE0089581E4E1
S11301209BE1089581E49FE1089581E191E00895C0
S113013081E59FE1089581E59BE0089580E090E0EA
S11301400895089581E595E1089581E19EE108957A
S1130150EF92FF921F93CF93DF9300D0CDB7DEB71A
S11301601A8219826630710508F0FEC190ED980F6D
S11301709A3028F08AE090E09A83898304C090E062
S1130180C0979A8389836115710509F04EC00F2EBB
S1130190FCEEEF2EF12CF02DF701108189819A816C
S11301A00E947E00107F8F70812BF70180830F2EB9
S11301B0F1EFEF2EF12CF02DF701108189819A8156
S11301C00E947E00807F99279595879595958795C0
S11301D09595879595958795107F812BF701808359
S11301E00F2EF6EFEF2EF12CF02DF70110818981FF
S11301F09A810E947E0088279F70107F192BF70137
S113020010830F2EFBEFEF2EF12CF02DF701108150
S113021089819A810E947E00107F95959595959588
S11302209595912BF70190839FC16130710509F079
S113023050C00F2EFCEEEF2EF12CF02DF7011081A3
S113024089819A810E947E001F7082959295907F89
S11302509827807F9827812BF70180830F2EF1EF59
S1130260EF2EF12CF02DF701108189819A810E94E3
S11302707E001F70807F812BF70180830F2EF6EFA5
S1130280EF2EF12CF02DF701108189819A810E94C3
S11302907E0088279F709595879595958795959568
S11302A08795959587951F70812BF70180830F2E75
S11302B0FBEFEF2EF12CF02DF701108189819A814B
S11302C00E947E008827907F1F70192BF7011083EE
S11302D04BC16230710509F04EC00F2EFDEEEF2EBA
S11302E0F12CF02DF701108189819A810E947E0002
S11302F0107F8F70812BF70180830F2EF2EFEF2E8A
S1130300F12CF02DF701108189819A810E947E00E1
S1130310807F992795958795959587959595879548
S113032095958795107F812BF70180830F2EF7EF2A
S1130330EF2EF12CF02DF701108189819A810E9412
S11303407E0088279F70107F192BF70110830F2ED2
S1130350FCEFEF2EF12CF02DF701108189819A81A9
S11303600E947E00107F9595959595959595912B76
S1130370F7019083F9C06330710509F050C00F2E66
S1130380FDEEEF2EF12CF02DF701108189819A8179
S11303900E947E001F7082959295907F9827807F9F
S11303A09827812BF70180830F2EF2EFEF2EF12C8B
S11303B0F02DF701108189819A810E947E001F70BF
S11303C0807F812BF70180830F2EF7EFEF2EF12C26
S11303D0F02DF701108189819A810E947E0088277F
S11303E09F709595879595958795959587959595FE
S11303F087951F70812BF70180830F2EFCEFEF2E62
S1130400F12CF02DF701108189819A810E947E00E0
S11304108827907F1F70192BF7011083A5C06430C3
S1130420710509F04EC00F2EFEEEEF2EF12CF02DCB
S1130430F701108189819A810E947E00107F8F705C
S1130440812BF70180830F2EF3EFEF2EF12CF02D8B
S1130450F701108189819A810E947E00807F99270B
S11304609595879595958795959587959595879570
S1130470107F812BF70180830F2EF8EFEF2EF12CE4
S1130480F02DF701108189819A810E947E008827CE
S11304909F70107F192BF70110830F2EFDEFEF2EA5
S11304A0F12CF02DF701108189819A810E947E0040
S11304B0107F9595959595959595912BF70190833A
S11304C053C06530710509F04FC00F2EFEEEEF2EBC
S11304D0F12CF02DF701108189819A810E947E0010
S11304E01F7082959295907F9827807F9827812B03
S11304F0F70180830F2EF3EFEF2EF12CF02DF7018F
S1130500108189819A810E947E001F70807F812BD7
S1130510F70180830F2EF8EFEF2EF12CF02DF70169
S1130520108189819A810E947E0088279F70959509
S113053087959595879595958795959587951F703A
S1130540812BF70180830F2EFDEFEF2EF12CF02D80
S1130550F701108189819A810E947E008827907F0B
S11305601F70192BF70110830F900F90DF91CF911B
S11305701F91FF90EF900895CF92DF92EF92FF9238
S11305800F931F93CF93DF9300D0CDB7DEB76B01EA
S11305907C018A0124E630E040E050E00E94860CB1
S11305A02AE030E040E050E00E94860CB80180E38D
S11305B0820F0E94A8001A82198289819A81883E3A
S11305C0934054F489819A8101969A83898389811D
S11305D09A81883E9340B4F30F5F1F4FC701B60161
S11305E02AE030E040E050E00E94860C862FB801FB
S11305F0805D0E94A8000F900F90DF91CF911F9112
S11306000F91FF90EF90DF90CF9008951F9B0BC048
S11306101E9B0CC01C9B0DC0629B0EC0639B0FC035
S113062080E090E0089587E090E0089586E090E00F
S1130630089584E090E0089582E090E0089583E0D6
S113064090E008950E946A000E9458000E940603E8
S11306500397E1F740E050E060E070E0CB010E94D6
S1130660BC02F4CFCF93DF9300D0CDB7DEB79A832B
S11306708983809100019091010106960E94CD0C1E
S1130680892B59F489819A81909301018093000107
S113069061E070E006960E94ED0C0F900F90DF91E0
S11306A0CF9108950F931F93CF93DF93E0910E01A1
S11306B0F0910F01309761F180910401909105014F
S11306C0009731F1C0910201D0910301AA81BB814D
S11306D0109779F0468157816085718516960D9142
S11306E01D912D913C911997401B510B620B730B7B
S11306F07AF4FC01208131813093050120930401B7
S1130700D183C08390930301809302010E9432033A
S1130710DF91CF911F910F9108951F920F920FB601
S11307200F9211242F933F934F935F936F937F9373
S11307308F939F93AF93BF93EF93FF932091060101
S1130740309107014091840050918500C901032E26
S1130750000CAA0BBB0BDC019927882760E070E032
S1130760842B952BA62BB72B80930801909309011A
S1130770A0930A01B0930B01B09B1BC0409184006D
S113078050918500C9010196092E000CAA0BBB0BE0
S1130790DC019927882760E070E0842B952BA62B39
S11307A0B72B8093080190930901A0930A01B09399
S11307B00B01E091A801F091A901309739F060E0B4
S11307C070E0809110019091110109950E945203EB
S11307D0FF91EF91BF91AF919F918F917F916F9115
S11307E05F914F913F912F910F900FBE0F901F90EB
S11307F018951F920F920FB60F9211242F933F93C7
S11308004F935F936F937F938F939F93AF93BF9314
S1130810EF93FF93209106013091070140918400EA
S113082050918500C901032E000CAA0BBB0BDC01FF
S11308309927882760E070E0842B952BA62BB72B93
S11308408093080190930901A0930A01B0930B01CE
S1130850B09B1BC04091840050918500C901019652
S1130860092E000CAA0BBB0BDC019927882760E03A
S113087070E0842B952BA62BB72B809308019093C3
S11308800901A0930A01B0930B01E091AA01F09130
S1130890AB01309739F061E070E0809112019091E2
S11308A0130109950E945203FF91EF91BF91AF91FB
S11308B09F918F917F916F915F914F913F912F9174
S11308C00F900FBE0F901F9018951F920F920FB6A6
S11308D00F9211242F933F934F935F936F937F93C2
S11308E08F939F93AF93BF93EF93FF932091060150
S11308F0309107014091840050918500C901032E75
S1130900000CAA0BBB0BDC019927882760E070E080
S1130910842B952BA62BB72B809308019093090168
S1130920A0930A01B0930B01B09B1BC040918400BB
S113093050918500C9010196092E000CAA0BBB0B2E
S1130940DC019927882760E070E0842B952BA62B87
S1130950B72B8093080190930901A0930A01B093E7
S11309600B01E091AC01F091AD01309739F062E0F8
S113097070E0809114019091150109950E94520331
S1130980FF91EF91BF91AF919F918F917F916F9163
S11309905F914F913F912F910F900FBE0F901F9039
S11309A018951F920F920FB60F9211242F933F9315
S11309B04F935F936F937F938F939F93AF93BF9363
S11309C0EF93FF9320910601309107014091840039
S11309D050918500C901032E000CAA0BBB0BDC014E
S11309E09927882760E070E0842B952BA62BB72BE2
S11309F08093080190930901A0930A01B0930B011D
S1130A00B09B1BC04091840050918500C9010196A0
S1130A10092E000CAA0BBB0BDC019927882760E088
S1130A2070E0842B952BA62BB72B80930801909311
S1130A300901A0930A01B0930B01E091AE01F0917A
S1130A40AF01309739F063E070E080911601909126
S1130A50170109950E945203FF91EF91BF91AF9145
S1130A609F918F917F916F915F914F913F912F91C2
S1130A700F900FBE0F901F9018951F920F920FB6F4
S1130A800F9211242F933F934F935F936F937F9310
S1130A908F939F93AF93BF93EF93FF93209106019E
S1130AA0309107014091840050918500C901032EC3
S1130AB0000CAA0BBB0BDC019927882760E070E0CF
S1130AC0842B952BA62BB72B8093080190930901B7
S1130AD0A0930A01B0930B01B09B1BC0409184000A
S1130AE050918500C9010196092E000CAA0BBB0B7D
S1130AF0DC019927882760E070E0842B952BA62BD6
S1130B00B72B8093080190930901A0930A01B09335
S1130B100B01E091B001F091B101309739F064E03C
S1130B2070E0809118019091190109950E94520377
S1130B30FF91EF91BF91AF919F918F917F916F91B1
S1130B405F914F913F912F910F900FBE0F901F9087
S1130B5018951F920F920FB60F9211242F933F9363
S1130B604F935F936F937F938F939F93AF93BF93B1
S1130B70EF93FF9320910601309107014091840087
S1130B8050918500C901032E000CAA0BBB0BDC019C
S1130B909927882760E070E0842B952BA62BB72B30
S1130BA08093080190930901A0930A01B0930B016B
S1130BB0B09B1BC04091840050918500C9010196EF
S1130BC0092E000CAA0BBB0BDC019927882760E0D7
S1130BD070E0842B952BA62BB72B80930801909360
S1130BE00901A0930A01B0930B01E091B201F091C5
S1130BF0B301309739F065E070E080911A0190916B
S1130C001B0109950E945203FF91EF91BF91AF918F
S1130C109F918F917F916F915F914F913F912F9110
S1130C200F900FBE0F901F9018951F920F920FB642
S1130C300F9211242F933F934F935F936F937F935E
S1130C408F939F93AF93BF93EF93FF9320910601EC
S1130C50309107014091840050918500C901032E11
S1130C60000CAA0BBB0BDC019927882760E070E01D
S1130C70842B952BA62BB72B809308019093090105
S1130C80A0930A01B0930B01B09B1BC04091840058
S1130C9050918500C9010196092E000CAA0BBB0BCB
S1130CA0DC019927882760E070E0842B952BA62B24
S1130CB0B72B8093080190930901A0930A01B09384
S1130CC00B01E091B401F091B501309739F066E081
S1130CD070E080911C0190911D0109950E945203BE
S1130CE0FF91EF91BF91AF919F918F917F916F9100
S1130CF05F914F913F912F910F900FBE0F901F90D6
S1130D0018951F920F920FB60F9211242F933F93B1
S1130D104F935F936F937F938F939F93AF93BF93FF
S1130D20EF93FF93209106013091070140918400D5
S1130D3050918500C901032E000CAA0BBB0BDC01EA
S1130D409927882760E070E0842B952BA62BB72B7E
S1130D508093080190930901A0930A01B0930B01B9
S1130D60B09B1BC04091840050918500C90101963D
S1130D70092E000CAA0BBB0BDC019927882760E025
S1130D8070E0842B952BA62BB72B809308019093AE
S1130D900901A0930A01B0930B01E091B601F0910F
S1130DA0B701309739F067E070E080911E019091AF
S1130DB01F0109950E945203FF91EF91BF91AF91DA
S1130DC09F918F917F916F915F914F913F912F915F
S1130DD00F900FBE0F901F9018951F920F920FB691
S1130DE00F9211242F933F934F935F936F937F93AD
S1130DF08F939F93AF93BF93EF93FF93209106013B
S1130E00309107014091840050918500C901032E5F
S1130E10000CAA0BBB0BDC019927882760E070E06B
S1130E20842B952BA62BB72B809308019093090153
S1130E30A0930A01B0930B01B09B1BC040918400A6
S1130E4050918500C9010196092E000CAA0BBB0B19
S1130E50DC019927882760E070E0842B952BA62B72
S1130E60B72B8093080190930901A0930A01B093D2
S1130E700B01E091B801F091B901309739F068E0C5
S1130E8070E0809120019091210109950E94520304
S1130E90FF91EF91BF91AF919F918F917F916F914E
S1130EA05F914F913F912F910F900FBE0F901F9024
S1130EB018951F920F920FB60F9211242F933F9300
S1130EC04F935F936F937F938F939F93AF93BF934E
S1130ED0EF93FF9320910601309107014091840024
S1130EE050918500C901032E000CAA0BBB0BDC0139
S1130EF09927882760E070E0842B952BA62BB72BCD
S1130F008093080190930901A0930A01B0930B0107
S1130F10B09B1BC04091840050918500C90101968B
S1130F20092E000CAA0BBB0BDC019927882760E073
S1130F3070E0842B952BA62BB72B809308019093FC
S1130F400901A0930A01B0930B01E091BA01F09159
S1130F50BB01309739F069E070E0809122019091F3
S1130F60230109950E945203FF91EF91BF91AF9124
S1130F709F918F917F916F915F914F913F912F91AD
S1130F800F900FBE0F901F9018951F920F920FB6DF
S1130F900F9211242F933F934F935F936F937F93FB
S1130FA08F939F93AF93BF93EF93FF932091060189
S1130FB0309107014091840050918500C901032EAE
S1130FC0000CAA0BBB0BDC019927882760E070E0BA
S1130FD0842B952BA62BB72B8093080190930901A2
S1130FE0A0930A01B0930B01B09B1BC040918400F5
S1130FF050918500C9010196092E000CAA0BBB0B68
S1131000DC019927882760E070E0842B952BA62BC0
S1131010B72B8093080190930901A0930A01B09320
S11310200B01E091BC01F091BD01309739F06AE009
S113103070E0809124019091250109950E9452034A
S1131040FF91EF91BF91AF919F918F917F916F919C
S11310505F914F913F912F910F900FBE0F901F9072
S113106018951F920F920FB60F9211242F933F934E
S11310704F935F936F937F938F939F93AF93BF939C
S1131080EF93FF9320910601309107014091840072
S113109050918500C901032E000CAA0BBB0BDC0187
S11310A09927882760E070E0842B952BA62BB72B1B
S11310B08093080190930901A0930A01B0930B0156
S11310C0B09B1BC04091840050918500C9010196DA
S11310D0092E000CAA0BBB0BDC019927882760E0C2
S11310E070E0842B952BA62BB72B8093080190934B
S11310F00901A0930A01B0930B01E091BE01F091A4
S1131100BF01309739F06BE070E080912601909137
S1131110270109950E945203FF91EF91BF91AF916E
S11311209F918F917F916F915F914F913F912F91FB
S11311300F900FBE0F901F9018951F920F920FB62D
S11311400F9211242F933F934F935F936F937F9349
S11311508F939F93AF93BF93EF93FF9320910601D7
S1131160309107014091840050918500C901032EFC
S1131170000CAA0BBB0BDC019927882760E070E008
S1131180842B952BA62BB72B8093080190930901F0
S1131190A0930A01B0930B01B09B1BC04091840043
S11311A050918500C9010196092E000CAA0BBB0BB6
S11311B0DC019927882760E070E0842B952BA62B0F
S11311C0B72B8093080190930901A0930A01B0936F
S11311D00B01E091C001F091C101309739F06CE04E
S11311E070E0809128019091290109950E94520391
S11311F0FF91EF91BF91AF919F918F917F916F91EB
S11312005F914F913F912F910F900FBE0F901F90C0
S113121018951F920F920FB60F9211242F933F939C
S11312204F935F936F937F938F939F93AF93BF93EA
S1131230EF93FF93209106013091070140918400C0
S113124050918500C901032E000CAA0BBB0BDC01D5
S11312509927882760E070E0842B952BA62BB72B69
S11312608093080190930901A0930A01B0930B01A4
S1131270B09B1BC04091840050918500C901019628
S1131280092E000CAA0BBB0BDC019927882760E010
S113129070E0842B952BA62BB72B80930801909399
S11312A00901A0930A01B0930B01E091C201F091EE
S11312B0C301309739F06DE070E080912A0190917C
S11312C02B0109950E945203FF91EF91BF91AF91B9
S11312D09F918F917F916F915F914F913F912F914A
S11312E00F900FBE0F901F9018951F920F920FB67C
S11312F00F9211242F933F934F935F936F937F9398
S11313008F939F93AF93BF93EF93FF932091060125
S1131310309107014091840050918500C901032E4A
S1131320000CAA0BBB0BDC019927882760E070E056
S1131330842B952BA62BB72B80930801909309013E
S1131340A0930A01B0930B01B09B1BC04091840091
S113135050918500C9010196092E000CAA0BBB0B04
S1131360DC019927882760E070E0842B952BA62B5D
S1131370B72B8093080190930901A0930A01B093BD
S11313800B01E091C401F091C501309739F06EE092
S113139070E080912C0190912D0109950E945203D7
S11313A0FF91EF91BF91AF919F918F917F916F9139
S11313B05F914F913F912F910F900FBE0F901F900F
S11313C018951F920F920FB60F9211242F933F93EB
S11313D04F935F936F937F938F939F93AF93BF9339
S11313E0EF93FF932091060130910701409184000F
S11313F050918500C901032E000CAA0BBB0BDC0124
S11314009927882760E070E0842B952BA62BB72BB7
S11314108093080190930901A0930A01B0930B01F2
S1131420B09B1BC04091840050918500C901019676
S1131430092E000CAA0BBB0BDC019927882760E05E
S113144070E0842B952BA62BB72B809308019093E7
S11314500901A0930A01B0930B01E091C601F09138
S1131460C701309739F06FE070E080912E019091C0
S11314702F0109950E945203FF91EF91BF91AF9103
S11314809F918F917F916F915F914F913F912F9198
S11314900F900FBE0F901F9018951F920F920FB6CA
S11314A00F9211242F933F934F935F936F937F93E6
S11314B08F939F93AF93BF93EF93FF932091060174
S11314C0309107014091840050918500C901032E99
S11314D0000CAA0BBB0BDC019927882760E070E0A5
S11314E0842B952BA62BB72B80930801909309018D
S11314F0A0930A01B0930B01B09B1BC040918400E0
S113150050918500C9010196092E000CAA0BBB0B52
S1131510DC019927882760E070E0842B952BA62BAB
S1131520B72B8093080190930901A0930A01B0930B
S11315300B01E091C801F091C901309739F060E1E5
S113154070E0809130019091310109950E9452031D
S1131550FF91EF91BF91AF919F918F917F916F9187
S11315605F914F913F912F910F900FBE0F901F905D
S113157018951F920F920FB60F9211242F933F9339
S11315804F935F936F937F938F939F93AF93BF9387
S1131590EF93FF932091060130910701409184005D
S11315A050918500C901032E000CAA0BBB0BDC0172
S11315B09927882760E070E0842B952BA62BB72B06
S11315C08093080190930901A0930A01B0930B0141
S11315D0B09B1BC04091840050918500C9010196C5
S11315E0092E000CAA0BBB0BDC019927882760E0AD
S11315F070E0842B952BA62BB72B80930801909336
S11316000901A0930A01B0930B01E091CA01F09182
S1131610CB01309739F061E170E080913201909113
S1131620330109950E945203FF91EF91BF91AF914D
S11316309F918F917F916F915F914F913F912F91E6
S11316400F900FBE0F901F901895EF92FF920F937B
S11316501F93CF93DF937B01EB01A881B98110978E
S113166061F1FC01068117812085318516964D9123
S11316705D916D917C91199704171507260737071B
S113168014F41BC0DF01ED91FC911197309749F0E0
S1131690468157816085718504171507260737072A
S11316A08CF7EC01F983E883109721F4F701918317
S11316B0808307C08D939C9304C0EC01B983A883F5
S11316C0F5CFDF91CF911F910F91FF90EF90089587
S11316D0DC01ED91FC911197309759F48FEF8093D1
S11316E0EC008093ED008093EE0081E083BF889549
S11316F0FDCF208131812D933C93CF0108951F921A
S11317000F920FB60F9211242F933F934F935F9331
S11317106F937F938F939F93EF93FF938091060131
S11317209091070101969093070180930601E0913F
S11317300C01F0910D01309701F1428153816481D4
S1131740758186179707C9F4CA01209184003091E6
S11317508500421B530B4130510529F480918400CC
S11317609091850001969093890080938800EFE61C
S1131770F0E080818260808305C0EFE6F0E0808144
S11317808D7F8083FF91EF919F918F917F916F91D6
S11317905F914F913F912F910F900FBE0F901F902B
S11317A018951F920F920FB60F921124CF92DF92C9
S11317B0EF92FF922F933F934F935F936F937F9397
S11317C08F939F93AF93BF93EF93FF93C0900601C2
S11317D0D09007012091840030918500B0990FC00A
S11317E00D2C000CEE08FF08D60199278827690103
S11317F0E12CF12CC82AD92AEA2AFB2A15C0209107
S11318008400309185008FEFC81AD80A0D2C000C83
S1131810EE08FF08D601992788276901E12CF12CED
S1131820C82AD92AEA2AFB2AE0910C01F0910D0179
S1131830309709F442C082819381A481B5818C19C7
S11318409D09AE09BF09181619061A061B06ECF104
S11318508CE091E00E94680B6EE071E00E94250B21
S1131860E0910C01F0910D01309739F1828193815F
S1131870A481B5818C199D09AE09BF0918161906F2
S11318801A061B062CF721C09C014091840050913C
S11318908500841B950B019731F4209184003091CD
S11318A085002F5F3F4F3093890020938800EFE637
S11318B0F0E080818260808305C0EFE6F0E0808103
S11318C08D7F80830E9452030CC082819381A48106
S11318D0B58120910601309107012A173B0769F76A
S11318E0D3CFFF91EF91BF91AF919F918F917F9152
S11318F06F915F914F913F912F91FF90EF90DF9007
S1131900CF900F900FBE0F901F901895052E97FB48
S11319101EF400940E949D0C57FD07D00E94AB0C4E
S113192007FC03D04EF40C949D0C509540953095D3
S113193021953F4F4F4F5F4F089590958095709537
S113194061957F4F8F4F9F4F0895EE0FFF1F0590B6
S1131950F491E02D0994A1E21A2EAA1BBB1BFD01F0
S11319600DC0AA1FBB1FEE1FFF1FA217B307E4077A
S1131970F50720F0A21BB30BE40BF50B661F771FD2
S1131980881F991F1A9469F76095709580959095B2
S11319909B01AC01BD01CF010895DC012D923D9264
S11319A04D925D926D927D928D929D92AD92BD927B
S11319B0CD92DD92ED92FD920D931D93CD93DD9327
S11319C0FF91EF918DB78D938EB78D938FB78D93D4
S11319D0ED93FD93882799270994DC01CB0181308D
S11319E09105811D2D903D904D905D906D907D9061
S11319F08D909D90AD90BD90CD90DD90ED90FD903B
S1131A000D911D91CD91DD91ED91FD910D90F89485
S1131A10FEBF0FBEEDBFED91FD910994F894FFCF89
S1091A20CC01CC013401ED
S9030000FC
