S01400006C616262345F6430303033652E7372656360
S11300000C9438000C9495050C9401060C946D0620
S11300100C94D9060C9445070C9455000C941C0EB2
S11300200C9455000C94CA0D0C94B1070C941D0843
S11300300C9489080C94F5080C9461090C94CD096E
S11300400C94390A0C94A50A0C94110B0C947D0B96
S11300500C94E90B0C94550C0C94C10CA300850072
S113006088008B008E009100940097009A009D00F8
S113007011241FBECFEFD4E0DEBFCDBF11E0A0E05E
S1130080B1E0E6EBF3E202C005900D92A830B107AF
S1130090D9F724E0A8E0B1E001C01D92A13BB2076A
S11300A0E1F70E94FD030C94D9110C940000E1E6E1
S11300B0F0E080E88083108287EB8093E50087E09E
S11300C08093E6008FE08093E70080EC8093E40067
S11300D0089585B1806D85B98EB18C608EB98DB36C
S11300E0806C8DBBECE6F0E08081806D8083EBE674
S11300F0F0E080818C60808308958A30910500F55A
S1130100FC01E25DFF4F0C94461180E890E20895F3
S113011081E19EE1089581E19BE1089580E59BE002
S1130120089581E49BE1089581E49FE1089581E1CC
S113013091E0089581E59FE1089581E59BE00895AC
S113014080E090E0089581E595E10895EF92FF92B3
S11301501F93CF93DF9300D0CDB7DEB71A821982F5
S11301606630710508F0FEC190ED980F9A3028F0C2
S11301708AE090E09A83898304C090E0C0979A83D0
S113018089836115710509F04EC00F2EFCEEEF2E28
S1130190F12CF02DF701108189819A810E947D0054
S11301A0107F8F70812BF70180830F2EF1EFEF2EDC
S11301B0F12CF02DF701108189819A810E947D0034
S11301C0807F99279595879595958795959587959A
S11301D095958795107F812BF70180830F2EF6EF7D
S11301E0EF2EF12CF02DF701108189819A810E9464
S11301F07D0088279F70107F192BF70110830F2E25
S1130200FBEFEF2EF12CF02DF701108189819A81FB
S11302100E947D00107F9595959595959595912BC8
S1130220F70190839FC16130710509F050C00F2E12
S1130230FCEEEF2EF12CF02DF701108189819A81CB
S11302400E947D001F7082959295907F9827807FF1
S11302509827812BF70180830F2EF1EFEF2EF12CDD
S1130260F02DF701108189819A810E947D001F7011
S1130270807F812BF70180830F2EF6EFEF2EF12C78
S1130280F02DF701108189819A810E947D008827D1
S11302909F7095958795959587959595879595954F
S11302A087951F70812BF70180830F2EFBEFEF2EB4
S11302B0F12CF02DF701108189819A810E947D0033
S11302C08827907F1F70192BF70110834BC1623070
S11302D0710509F04EC00F2EFDEEEF2EF12CF02D1E
S11302E0F701108189819A810E947D00107F8F70AF
S11302F0812BF70180830F2EF2EFEF2EF12CF02DDE
S1130300F701108189819A810E947D00807F99275D
S113031095958795959587959595879595958795C1
S1130320107F812BF70180830F2EF7EFEF2EF12C36
S1130330F02DF701108189819A810E947D00882720
S11303409F70107F192BF70110830F2EFCEFEF2EF7
S1130350F12CF02DF701108189819A810E947D0092
S1130360107F9595959595959595912BF70190838B
S1130370F9C06330710509F050C00F2EFDEEEF2E69
S1130380F12CF02DF701108189819A810E947D0062
S11303901F7082959295907F9827807F9827812B54
S11303A0F70180830F2EF2EFEF2EF12CF02DF701E1
S11303B0108189819A810E947D001F70807F812B2A
S11303C0F70180830F2EF7EFEF2EF12CF02DF701BC
S11303D0108189819A810E947D0088279F7095955C
S11303E087959595879595958795959587951F708C
S11303F0812BF70180830F2EFCEFEF2EF12CF02DD3
S1130400F701108189819A810E947D008827907F5D
S11304101F70192BF7011083A5C06430710509F012
S11304204EC00F2EFEEEEF2EF12CF02DF7011081B1
S113043089819A810E947D00107F8F70812BF70142
S113044080830F2EF3EFEF2EF12CF02DF7011081A6
S113045089819A810E947D00807F9927959587954F
S1130460959587959595879595958795107F812B7B
S1130470F70180830F2EF8EFEF2EF12CF02DF7010A
S1130480108189819A810E947D0088279F70107F46
S1130490192BF70110830F2EFDEFEF2EF12CF02D09
S11304A0F701108189819A810E947D00107F9595C2
S11304B0959595959595912BF701908353C065304B
S11304C0710509F04FC00F2EFEEEEF2EF12CF02D2A
S11304D0F701108189819A810E947D001F708295A5
S11304E09295907F9827807F9827812BF7018083AE
S11304F00F2EF3EFEF2EF12CF02DF70110818981EF
S11305009A810E947D001F70807F812BF701808378
S11305100F2EF8EFEF2EF12CF02DF70110818981C9
S11305209A810E947D0088279F709595879595955F
S1130530879595958795959587951F70812BF701DC
S113054080830F2EFDEFEF2EF12CF02DF70110819B
S113055089819A810E947D008827907F1F70192BC2
S1130560F70110830F900F90DF91CF911F91FF90AF
S1130570EF900895CF92DF92EF92FF920F931F9323
S1130580CF93DF9300D0CDB7DEB76B017C018A0136
S113059024E630E040E050E00E9427112AE030E0F9
S11305A040E050E00E942711B80180E3820F0E94CE
S11305B0A6001A82198289819A81883E934054F454
S11305C089819A8101969A83898389819A81883E57
S11305D09340B4F30F5F1F4FC701B6012AE030E028
S11305E040E050E00E942711862FB801805D0E94F0
S11305F0A6000F900F90DF91CF911F910F91FF9064
S1130600EF90DF90CF900895CF93DF93EC0119AA78
S113061018AA8EA59FA5892B41F40E9457000E9419
S1130620690081E090E09FA78EA768897989072EE9
S1130630000C880B990B40E050E00E94BA026E8DCA
S11306407F8D072E000C880B990B44E050E00E942C
S1130650BA02DF91CF9108951F9B0BC01E9B0CC063
S11306601C9B0DC0629B0EC0639B0FC080E090E09A
S1130670089587E090E0089586E090E0089584E08E
S113068090E0089582E090E0089583E090E008957A
S1130690CF92DF92EF92FF920F931F93CF93DF934A
S11306A0EC010E942C038730910521F58CA59DA5B2
S11306B0181619060CF079C08E01005E1F4FC12C6C
S11306C0D12C0F2EF7ECEF2EF4E0FF2EF02D20E0CE
S11306D030E0A90160E070E0CB010E94D10E48A98E
S11306E059A96CA57DA5072E000C880B990B0E94B7
S11306F0BA025BC082309105A1F48EE0FE0134960B
S1130700DE01909601900D928A95E1F719AA18AA34
S113071042E050E060E270E080E090E00E94BA02C3
S113072044C083309105B1F48EE0FE017296DE017F
S1130730909601900D928A95E1F784E090E099AB50
S113074088AB42E050E061E270E080E090E00E941B
S1130750BA022BC086309105F1F48E01005E1F4F62
S1130760C12CD12C0F2EFFEBEF2EF4E0FF2EF02D39
S113077020E030E0A90160E070E0CB010E94D10EDE
S113078048A959A96CA57DA5072E000C880B990BC7
S11307900E94BA020AC0049741F042E050E062E2CB
S11307A070E080E090E00E94BA02DF91CF911F9147
S11307B00F91FF90EF90DF90CF90089541E068E4AF
S11307C073E088E291E00E94DD1042E068E473E0A7
S11307D088E291E00E94DD1040E050E066E674E0BB
S11307E086E191E00E94E20F40E050E066E674E0AA
S11307F088E091E00E94E20F089520912401309155
S11308002501409126015091270102E010E064E0A7
S113081070E086E191E00E94AF04209124013091C0
S11308202501409126015091270101E010E066E086
S113083070E088E091E00E94AF048EE0E6E1F1E030
S1130840ACE2B1E001900D928A95E1F78EE0E8E028
S1130850F1E0AAE3B1E001900D928A95E1F78EE010
S1130860E6E1F1E0A8E4B1E001900D928A95E1F7A8
S113087088E291E00E94040340E050E06EED73E0F2
S11308808AE591E00E94F710FFCF8EB190E0062E2A
S113089002C0959587950A94E2F780FF0CC02EB1AB
S11308A081E090E002C0880F991F6A95E2F7809575
S11308B082238EB908952EB181E090E002C0880FA2
S11308C0991F6A95E2F7822B8EB90895CF92DF9231
S11308D0EF92FF920F931F93CF93DF93EC018C85DC
S11308E09D85892B41F04885598565E474E0CE01E6
S11308F004960E94E20F6C857D8584EF91E00E944E
S113090013112DE730E0DB010E944C118B019C0197
S1130910992324F40D5F1F4F2F4F3F4FC901B80196
S11309209595879577956795959587957795679527
S1130930C12CD12C0F2EF6E6EF2EF4E0FF2EF02D75
S11309408E0120E030E0A9010E94D10EDF91CF9109
S11309501F910F91FF90EF90DF90CF9008950F9328
S11309601F93FC0171876087138612862483358365
S113097046835783158704871F910F910895FC01BF
S1130980248535852F5F3F4F358724870895FC01E3
S11309902485358521503109358724870895CF93DF
S11309A0DF9300D000D0CDB7DEB781E592E021E33C
S11309B033E0FC01709791838083409682179307FC
S11309C0C1F71092220310922103ECE8F1E089EAC6
S11309D091E09183808386EC91E0968F858FA3EEDE
S11309E0B1E0B3AFA2AF1D921C92FA83E983EDE8A4
S11309F0F3E0FC83EB8389819A8106960E94981127
S1130A008B819C81E981FA81978B868B918F808F72
S1130A108FE690E1948F838F158214827D96FA83FA
S1130A20E983EB81FC81E05AFF4FFC83EB838981EE
S1130A309A8180509240F9F6E4E2F2E01182108249
S1130A401582148213821282E1E6F0E080E880834A
S1130A501082109285001092840084E080938100BB
S1130A6081E080936F000F900F900F900F90DF91B3
S1130A70CF910895CF93DF9300D0CDB7DEB79A839B
S1130A808983809100019091010106960E9498113A
S1130A90892B59F489819A819093010180930001F3
S1130AA061E070E006960E94B8110F900F90DF91FC
S1130AB0CF9108950F931F93CF93DF93E091660135
S1130AC0F0916701309761F18091040190910501E3
S1130AD0009731F1C0910201D0910301AA81BB8139
S1130AE0109779F0468157816085718516960D912E
S1130AF01D912D913C911997401B510B620B730B67
S1130B007AF4FC01208131813093050120930401A2
S1130B10D183C08390930301809302010E943A051C
S1130B20DF91CF911F910F9108951F920F920FB6ED
S1130B300F9211242F933F934F935F936F937F935F
S1130B408F939F93AF93BF93EF93FF9320915E0195
S1130B5030915F014091840050918500C901032EBA
S1130B60000CAA0BBB0BDC019927882760E070E01E
S1130B70842B952BA62BB72B809360019093610156
S1130B80A0936201B0936301B09B1BC040918400A9
S1130B9050918500C9010196092E000CAA0BBB0BCC
S1130BA0DC019927882760E070E0842B952BA62B25
S1130BB0B72B8093600190936101A0936201B0937D
S1130BC06301E0910002F0910102309739F060E096
S1130BD070E0809168019091690109950E945A051D
S1130BE0FF91EF91BF91AF919F918F917F916F9101
S1130BF05F914F913F912F910F900FBE0F901F90D7
S1130C0018951F920F920FB60F9211242F933F93B2
S1130C104F935F936F937F938F939F93AF93BF9300
S1130C20EF93FF9320915E0130915F014091840026
S1130C3050918500C901032E000CAA0BBB0BDC01EB
S1130C409927882760E070E0842B952BA62BB72B7F
S1130C508093600190936101A0936201B09363015A
S1130C60B09B1BC04091840050918500C90101963E
S1130C70092E000CAA0BBB0BDC019927882760E026
S1130C8070E0842B952BA62BB72B80936001909357
S1130C906101A0936201B0936301E0910202F091BB
S1130CA00302309739F061E070E080916A0190911D
S1130CB06B0109950E945A05FF91EF91BF91AF9185
S1130CC09F918F917F916F915F914F913F912F9160
S1130CD00F900FBE0F901F9018951F920F920FB692
S1130CE00F9211242F933F934F935F936F937F93AE
S1130CF08F939F93AF93BF93EF93FF9320915E01E4
S1130D0030915F014091840050918500C901032E08
S1130D10000CAA0BBB0BDC019927882760E070E06C
S1130D20842B952BA62BB72B8093600190936101A4
S1130D30A0936201B0936301B09B1BC040918400F7
S1130D4050918500C9010196092E000CAA0BBB0B1A
S1130D50DC019927882760E070E0842B952BA62B73
S1130D60B72B8093600190936101A0936201B093CB
S1130D706301E0910402F0910502309739F062E0DA
S1130D8070E080916C0190916D0109950E945A0563
S1130D90FF91EF91BF91AF919F918F917F916F914F
S1130DA05F914F913F912F910F900FBE0F901F9025
S1130DB018951F920F920FB60F9211242F933F9301
S1130DC04F935F936F937F938F939F93AF93BF934F
S1130DD0EF93FF9320915E0130915F014091840075
S1130DE050918500C901032E000CAA0BBB0BDC013A
S1130DF09927882760E070E0842B952BA62BB72BCE
S1130E008093600190936101A0936201B0936301A8
S1130E10B09B1BC04091840050918500C90101968C
S1130E20092E000CAA0BBB0BDC019927882760E074
S1130E3070E0842B952BA62BB72B809360019093A5
S1130E406101A0936201B0936301E0910602F09105
S1130E500702309739F063E070E080916E01909161
S1130E606F0109950E945A05FF91EF91BF91AF91CF
S1130E709F918F917F916F915F914F913F912F91AE
S1130E800F900FBE0F901F9018951F920F920FB6E0
S1130E900F9211242F933F934F935F936F937F93FC
S1130EA08F939F93AF93BF93EF93FF9320915E0132
S1130EB030915F014091840050918500C901032E57
S1130EC0000CAA0BBB0BDC019927882760E070E0BB
S1130ED0842B952BA62BB72B8093600190936101F3
S1130EE0A0936201B0936301B09B1BC04091840046
S1130EF050918500C9010196092E000CAA0BBB0B69
S1130F00DC019927882760E070E0842B952BA62BC1
S1130F10B72B8093600190936101A0936201B09319
S1130F206301E0910802F0910902309739F064E01E
S1130F3070E0809170019091710109950E945A05A9
S1130F40FF91EF91BF91AF919F918F917F916F919D
S1130F505F914F913F912F910F900FBE0F901F9073
S1130F6018951F920F920FB60F9211242F933F934F
S1130F704F935F936F937F938F939F93AF93BF939D
S1130F80EF93FF9320915E0130915F0140918400C3
S1130F9050918500C901032E000CAA0BBB0BDC0188
S1130FA09927882760E070E0842B952BA62BB72B1C
S1130FB08093600190936101A0936201B0936301F7
S1130FC0B09B1BC04091840050918500C9010196DB
S1130FD0092E000CAA0BBB0BDC019927882760E0C3
S1130FE070E0842B952BA62BB72B809360019093F4
S1130FF06101A0936201B0936301E0910A02F09150
S11310000B02309739F065E070E0809172019091A5
S1131010730109950E945A05FF91EF91BF91AF9119
S11310209F918F917F916F915F914F913F912F91FC
S11310300F900FBE0F901F9018951F920F920FB62E
S11310400F9211242F933F934F935F936F937F934A
S11310508F939F93AF93BF93EF93FF9320915E0180
S113106030915F014091840050918500C901032EA5
S1131070000CAA0BBB0BDC019927882760E070E009
S1131080842B952BA62BB72B809360019093610141
S1131090A0936201B0936301B09B1BC04091840094
S11310A050918500C9010196092E000CAA0BBB0BB7
S11310B0DC019927882760E070E0842B952BA62B10
S11310C0B72B8093600190936101A0936201B09368
S11310D06301E0910C02F0910D02309739F066E063
S11310E070E0809174019091750109950E945A05F0
S11310F0FF91EF91BF91AF919F918F917F916F91EC
S11311005F914F913F912F910F900FBE0F901F90C1
S113111018951F920F920FB60F9211242F933F939D
S11311204F935F936F937F938F939F93AF93BF93EB
S1131130EF93FF9320915E0130915F014091840011
S113114050918500C901032E000CAA0BBB0BDC01D6
S11311509927882760E070E0842B952BA62BB72B6A
S11311608093600190936101A0936201B093630145
S1131170B09B1BC04091840050918500C901019629
S1131180092E000CAA0BBB0BDC019927882760E011
S113119070E0842B952BA62BB72B80936001909342
S11311A06101A0936201B0936301E0910E02F0919A
S11311B00F02309739F067E070E0809176019091EA
S11311C0770109950E945A05FF91EF91BF91AF9164
S11311D09F918F917F916F915F914F913F912F914B
S11311E00F900FBE0F901F9018951F920F920FB67D
S11311F00F9211242F933F934F935F936F937F9399
S11312008F939F93AF93BF93EF93FF9320915E01CE
S113121030915F014091840050918500C901032EF3
S1131220000CAA0BBB0BDC019927882760E070E057
S1131230842B952BA62BB72B80936001909361018F
S1131240A0936201B0936301B09B1BC040918400E2
S113125050918500C9010196092E000CAA0BBB0B05
S1131260DC019927882760E070E0842B952BA62B5E
S1131270B72B8093600190936101A0936201B093B6
S11312806301E0911002F0911102309739F068E0A7
S113129070E0809178019091790109950E945A0536
S11312A0FF91EF91BF91AF919F918F917F916F913A
S11312B05F914F913F912F910F900FBE0F901F9010
S11312C018951F920F920FB60F9211242F933F93EC
S11312D04F935F936F937F938F939F93AF93BF933A
S11312E0EF93FF9320915E0130915F014091840060
S11312F050918500C901032E000CAA0BBB0BDC0125
S11313009927882760E070E0842B952BA62BB72BB8
S11313108093600190936101A0936201B093630193
S1131320B09B1BC04091840050918500C901019677
S1131330092E000CAA0BBB0BDC019927882760E05F
S113134070E0842B952BA62BB72B80936001909390
S11313506101A0936201B0936301E0911202F091E4
S11313601302309739F069E070E080917A0190912E
S11313707B0109950E945A05FF91EF91BF91AF91AE
S11313809F918F917F916F915F914F913F912F9199
S11313900F900FBE0F901F9018951F920F920FB6CB
S11313A00F9211242F933F934F935F936F937F93E7
S11313B08F939F93AF93BF93EF93FF9320915E011D
S11313C030915F014091840050918500C901032E42
S11313D0000CAA0BBB0BDC019927882760E070E0A6
S11313E0842B952BA62BB72B8093600190936101DE
S11313F0A0936201B0936301B09B1BC04091840031
S113140050918500C9010196092E000CAA0BBB0B53
S1131410DC019927882760E070E0842B952BA62BAC
S1131420B72B8093600190936101A0936201B09304
S11314306301E0911402F0911502309739F06AE0EB
S113144070E080917C0190917D0109950E945A057C
S1131450FF91EF91BF91AF919F918F917F916F9188
S11314605F914F913F912F910F900FBE0F901F905E
S113147018951F920F920FB60F9211242F933F933A
S11314804F935F936F937F938F939F93AF93BF9388
S1131490EF93FF9320915E0130915F0140918400AE
S11314A050918500C901032E000CAA0BBB0BDC0173
S11314B09927882760E070E0842B952BA62BB72B07
S11314C08093600190936101A0936201B0936301E2
S11314D0B09B1BC04091840050918500C9010196C6
S11314E0092E000CAA0BBB0BDC019927882760E0AE
S11314F070E0842B952BA62BB72B809360019093DF
S11315006101A0936201B0936301E0911602F0912E
S11315101702309739F06BE070E080917E01909172
S11315207F0109950E945A05FF91EF91BF91AF91F8
S11315309F918F917F916F915F914F913F912F91E7
S11315400F900FBE0F901F9018951F920F920FB619
S11315500F9211242F933F934F935F936F937F9335
S11315608F939F93AF93BF93EF93FF9320915E016B
S113157030915F014091840050918500C901032E90
S1131580000CAA0BBB0BDC019927882760E070E0F4
S1131590842B952BA62BB72B80936001909361012C
S11315A0A0936201B0936301B09B1BC0409184007F
S11315B050918500C9010196092E000CAA0BBB0BA2
S11315C0DC019927882760E070E0842B952BA62BFB
S11315D0B72B8093600190936101A0936201B09353
S11315E06301E0911802F0911902309739F06CE030
S11315F070E0809180019091810109950E945A05C3
S1131600FF91EF91BF91AF919F918F917F916F91D6
S11316105F914F913F912F910F900FBE0F901F90AC
S113162018951F920F920FB60F9211242F933F9388
S11316304F935F936F937F938F939F93AF93BF93D6
S1131640EF93FF9320915E0130915F0140918400FC
S113165050918500C901032E000CAA0BBB0BDC01C1
S11316609927882760E070E0842B952BA62BB72B55
S11316708093600190936101A0936201B093630130
S1131680B09B1BC04091840050918500C901019614
S1131690092E000CAA0BBB0BDC019927882760E0FC
S11316A070E0842B952BA62BB72B8093600190932D
S11316B06101A0936201B0936301E0911A02F09179
S11316C01B02309739F06DE070E0809182019091B7
S11316D0830109950E945A05FF91EF91BF91AF9143
S11316E09F918F917F916F915F914F913F912F9136
S11316F00F900FBE0F901F9018951F920F920FB668
S11317000F9211242F933F934F935F936F937F9383
S11317108F939F93AF93BF93EF93FF9320915E01B9
S113172030915F014091840050918500C901032EDE
S1131730000CAA0BBB0BDC019927882760E070E042
S1131740842B952BA62BB72B80936001909361017A
S1131750A0936201B0936301B09B1BC040918400CD
S113176050918500C9010196092E000CAA0BBB0BF0
S1131770DC019927882760E070E0842B952BA62B49
S1131780B72B8093600190936101A0936201B093A1
S11317906301E0911C02F0911D02309739F06EE074
S11317A070E0809184019091850109950E945A0509
S11317B0FF91EF91BF91AF919F918F917F916F9125
S11317C05F914F913F912F910F900FBE0F901F90FB
S11317D018951F920F920FB60F9211242F933F93D7
S11317E04F935F936F937F938F939F93AF93BF9325
S11317F0EF93FF9320915E0130915F01409184004B
S113180050918500C901032E000CAA0BBB0BDC010F
S11318109927882760E070E0842B952BA62BB72BA3
S11318208093600190936101A0936201B09363017E
S1131830B09B1BC04091840050918500C901019662
S1131840092E000CAA0BBB0BDC019927882760E04A
S113185070E0842B952BA62BB72B8093600190937B
S11318606101A0936201B0936301E0911E02F091C3
S11318701F02309739F06FE070E0809186019091FB
S1131880870109950E945A05FF91EF91BF91AF918D
S11318909F918F917F916F915F914F913F912F9184
S11318A00F900FBE0F901F9018951F920F920FB6B6
S11318B00F9211242F933F934F935F936F937F93D2
S11318C08F939F93AF93BF93EF93FF9320915E0108
S11318D030915F014091840050918500C901032E2D
S11318E0000CAA0BBB0BDC019927882760E070E091
S11318F0842B952BA62BB72B8093600190936101C9
S1131900A0936201B0936301B09B1BC0409184001B
S113191050918500C9010196092E000CAA0BBB0B3E
S1131920DC019927882760E070E0842B952BA62B97
S1131930B72B8093600190936101A0936201B093EF
S11319406301E0912002F0912102309739F060E1C7
S113195070E0809188019091890109950E945A054F
S1131960FF91EF91BF91AF919F918F917F916F9173
S11319705F914F913F912F910F900FBE0F901F9049
S113198018951F920F920FB60F9211242F933F9325
S11319904F935F936F937F938F939F93AF93BF9373
S11319A0EF93FF9320915E0130915F014091840099
S11319B050918500C901032E000CAA0BBB0BDC015E
S11319C09927882760E070E0842B952BA62BB72BF2
S11319D08093600190936101A0936201B0936301CD
S11319E0B09B1BC04091840050918500C9010196B1
S11319F0092E000CAA0BBB0BDC019927882760E099
S1131A0070E0842B952BA62BB72B809360019093C9
S1131A106101A0936201B0936301E0912202F0910D
S1131A202302309739F061E170E080918A0190914E
S1131A308B0109950E945A05FF91EF91BF91AF91D7
S1131A409F918F917F916F915F914F913F912F91D2
S1131A500F900FBE0F901F901895EF92FF920F9367
S1131A601F93CF93DF937B01EB01A881B98110977A
S1131A7061F1FC01068117812085318516964D910F
S1131A805D916D917C911997041715072607370707
S1131A9014F41BC0DF01ED91FC911197309749F0CC
S1131AA04681578160857185041715072607370716
S1131AB08CF7EC01F983E883109721F4F701918303
S1131AC0808307C08D939C9304C0EC01B983A883E1
S1131AD0F5CFDF91CF911F910F91FF90EF90089573
S1131AE0EF92FF920F931F93CF93DF937B01EB0150
S1131AF0A881B981109761F1FC01028113812481CD
S1131B00358112964D915D916D917C9115970417D5
S1131B1015072607370714F41BC0DF01ED91FC916C
S1131B201197309749F0428153816481758104177C
S1131B301507260737078CF7EC01F983E88310971C
S1131B4021F4F7019183808307C08D939C9304C093
S1131B50EC01B983A883F5CFDF91CF911F910F9149
S1131B60FF90EF900895DC01ED91FC91119730976F
S1131B7059F48FEF8093EC008093ED008093EE0096
S1131B8081E083BF8895FDCF208131812D933C93E3
S1131B90CF0108951F920F920FB60F9211242F9325
S1131BA03F934F935F936F937F938F939F93EF93A1
S1131BB0FF9380915E0190915F01019690935F0184
S1131BC080935E01E0916401F0916501309701F129
S1131BD0428153816481758186179707C9F4CA01CC
S1131BE02091840030918500421B530B41305105F4
S1131BF029F4809184009091850001969093890046
S1131C0080938800EFE6F0E080818260808305C0E5
S1131C10EFE6F0E080818D7F8083FF91EF919F91CB
S1131C208F917F916F915F914F913F912F910F9081
S1131C300FBE0F901F9018951F920F920FB60F9220
S1131C401124CF92DF92EF92FF922F933F934F9301
S1131C505F936F937F938F939F93AF93BF93EF9310
S1131C60FF93C0905E01D0905F0120918400309179
S1131C708500B0990FC00D2C000CEE08FF08D601AA
S1131C80992788276901E12CF12CC82AD92AEA2A44
S1131C90FB2A15C020918400309185008FEFC81A6B
S1131CA0D80A0D2C000CEE08FF08D60199278827C6
S1131CB06901E12CF12CC82AD92AEA2AFB2AE091ED
S1131CC06401F0916501309709F442C082819381E7
S1131CD0A481B5818C199D09AE09BF09181619068E
S1131CE01A061B06ECF184E691E00E94B30D66E649
S1131CF071E00E942D0DE0916401F091650130972F
S1131D0039F182819381A481B5818C199D09AE0931
S1131D10BF09181619061A061B062CF721C09C01C8
S1131D204091840050918500841B950B019731F4F8
S1131D3020918400309185002F5F3F4F30938900BC
S1131D4020938800EFE6F0E080818260808305C004
S1131D50EFE6F0E080818D7F80830E945A050CC0FD
S1131D6082819381A481B58120915E0130915F01CC
S1131D702A173B0769F7D3CFFF91EF91BF91AF913A
S1131D809F918F917F916F915F914F913F912F918F
S1131D90FF90EF90DF90CF900F900FBE0F901F90A9
S1131DA018953F924F925F926F927F928F929F927B
S1131DB0AF92BF92CF92DF92EF92FF920F931F9355
S1131DC0CF93DF932B013C0149015A018FB78078EF
S1131DD0382EF89486E091E00E94B30DEC011B8745
S1131DE00A87FD86EC86DF86CE86332061F0E0919B
S1131DF00001F09101010280F381E02D8281938141
S1131E00A481B58108C08091600190916101A09185
S1131E106201B0916301480E591E6A1E7B1E4A82FC
S1131E205B826C827D82181419041A041B0444F02A
S1131E300F2E88248A94982CA82CFFE7BF2EF02D0F
S1131E40840C951CA61CB71C8E829F82A886B9861A
S1131E5080915E0190915F014091840050918500D2
S1131E60B0990EC0092E000CAA0BBB0BDC019927FC
S1131E70882760E070E0842B952BA62BB72B13C02A
S1131E8020918400309185000196092E000CAA0B44
S1131E90BB0BDC0199278827A90160E070E0842B43
S1131EA0952BA62BB72B481A590A6A0A7B0A1414D5
S1131EB0150416041704ACF564E671E0CE010E9423
S1131EC0700DE0916401F0916501309721F18281F8
S1131ED09381A481B58120915E0130915F012A171D
S1131EE03B07C9F49C014091840050918500841BF8
S1131EF0950B019731F420918400309185002F5F78
S1131F003F4F3093890020938800EFE6F0E0808112
S1131F108260808341C0EFE6F0E080818D7F808322
S1131F203BC066E671E0CE010E942D0D3320B9F16D
S1131F308091040190910501009781F1E0910201E3
S1131F40F0910301209166013091670102811381B0
S1131F50D90116964D915D916D917C911997D80197
S1131F6016960D911D912D913C911997401B510B83
S1131F70620B730B9AF4DC012D913C911197309311
S1131F80050120930401ED93FC9390930301809346
S1131F9002010E943A0502C0332009F07894CE0170
S1131FA0DF91CF911F910F91FF90EF90DF90CF9031
S1131FB0BF90AF909F908F907F906F905F904F9065
S1131FC03F900895CF92DF92EF92FF920F931F9369
S1131FD0CF93DF93EC017B016A011FB71078F8946B
S1131FE0A881B981109761F11496ED91FC91159730
S1131FF0309741F0A081B1811496ED91FC91159731
S11320003097C1F720910001309101012A173B0755
S113201021F0112309F43DC007C0112309F43CC089
S113202078948FEF9FEF52C08A819B810097D1F102
S1132030FC011582148236C0789480E090E046C09A
S1132040809100019091010199838883112329F0E3
S11320508A819B81019709F07894B601CE01F7013A
S11320600995F82E092F8FB7F894198218828A815E
S11320709B818230910538F01B821A82FC01158203
S113208014820E943A05112351F078948F2D902FD9
S11320901DC08FEF9FEF1AC08FEF9FEF17C08F2DDA
S11320A0902F14C03B832A83F901D583C483CD01C7
S11320B00E943A05E0910001F0910101828193812F
S11320C0892B09F4B9CFF983E883C2CFDF91CF918B
S11320D01F910F91FF90EF90DF90CF9008950091A2
S11320E000011091010186E691E00E94B30DEC011C
S11320F0D80113969C938E93129778944E855F859E
S11321006C857D858A859B850E94E20F8FB7F89444
S1132110809106019091070199838883D0930701E8
S1132120C0930601E0910201F09103010081118145
S1132130E8012A813B81A0916601B0916701109763
S1132140C1F02115310559F216968D919D910D908E
S1132150BC91A02DE9014E815F8168857985841B3E
S1132160950BA60BB70B181619061A061B060CF0CE
S1132170B6CF109303010093020180910401909162
S1132180050191838083F0930501E0930401A091FC
S11321900201B09103011496ED91FC9115973097CB
S11321A041F0A081B1811496ED91FC91159730977F
S11321B0C1F7CD010E943A0592CF4231B8F42FB74E
S11321C0F89450E0440F551FFA01E859FE4F9183EB
S11321D08083FA01E050FE4F7183608341E050E058
S11321E0FC015383428322230CF4789408958C01D8
S11321F07B016A018FB7F8940E94CF047894E114AC
S1132200F10441F020E030E0A90160E070E0CB018E
S11322100E94D10E8FB7F8940E945A05789481E0F9
S113222083BF8895FDCF97FB072E16F4009407D043
S113223077FD09D00E94531107FC05D03EF4909518
S113224081959F4F0895709561957F4F0895052E50
S113225097FB1EF400940E943E1157FD07D00E9484
S1132260671107FC03D04EF40C943E115095409531
S1132270309521953F4F4F4F5F4F0895909580952E
S1132280709561957F4F8F4F9F4F0895EE0FFF1FFD
S11322900590F491E02D09940E948911B7FF0895E7
S11322A0821B930B0895AA1BBB1B51E107C0AA1FF5
S11322B0BB1FA617B70710F0A61BB70B881F991FE3
S11322C05A95A9F780959095BC01CD010895A1E296
S11322D01A2EAA1BBB1BFD010DC0AA1FBB1FEE1F9C
S11322E0FF1FA217B307E407F50720F0A21BB30BE7
S11322F0E40BF50B661F771F881F991F1A9469F763
S113230060957095809590959B01AC01BD01CF01BE
S11323100895A29FB001B39FC001A39F700D811DBA
S11323201124911DB29F700D811D1124911D0895DA
S1132330DC012D923D924D925D926D927D928D9233
S11323409D92AD92BD92CD92DD92ED92FD920D9350
S11323501D93CD93DD93FF91EF918DB78D938EB740
S11323608D938FB78D93ED93FD93882799270994C7
S1132370DC01CB0181309105811D2D903D904D9064
S11323805D906D907D908D909D90AD90BD90CD9021
S1132390DD90ED90FD900D911D91CD91DD91ED912C
S11323A0FD910D90F894FEBF0FBEEDBFED91FD9130
S10923B00994F894FFCF2C
S10B23B6240224028C014102FF
S9030000FC
