S01400006C616262345F6430303033652E7372656360
S11300000C9438000C94E7050C9453060C94BF062A
S11300100C942B070C9497070C9455000C946E0EBB
S11300200C9455000C941C0E0C9403080C946F084B
S11300300C94DB080C9447090C94B3090C941F0A24
S11300400C948B0A0C94F70A0C94630B0C94CF0B4E
S11300500C943B0C0C94A70C0C94130DAC008E0068
S11300609100940097009A009D00A000A300A600B0
S113007011241FBECFEFD4E0DEBFCDBF11E0A0E05E
S1130080B1E0EAE5F4E202C005900D92AC33B107A9
S1130090D9F724E0ACE3B1E001C01D92A339B20763
S11300A0E1F70E9475040C942B120C940000FC01DF
S11300B0138A128A0895E1E6F0E080E880831082D2
S11300C087EB8093E50087E08093E6008FE08093E0
S11300D0E70080EC8093E400089585B1806D85B9D4
S11300E08EB18C608EB98DB3806C8DBBECE6F0E084
S11300F08081806D8083EBE6F0E080818C6080837A
S113010008950E945B000E946D0008958A30910555
S113011000F5FC01E25DFF4F0C94981180E890E239
S1130120089581E19EE1089581E19BE1089580E5D0
S11301309BE0089581E49BE1089581E49FE10895A3
S113014081E191E0089581E59FE1089581E59BE0D7
S1130150089580E090E0089581E595E10895EF9297
S1130160FF921F93CF93DF9300D0CDB7DEB71A82EF
S113017019826630710508F0FEC190ED980F9A302F
S113018028F08AE090E09A83898304C090E0C097C5
S11301909A8389836115710509F04EC00F2EFCEE18
S11301A0EF2EF12CF02DF701108189819A810E94A4
S11301B08600107F8F70812BF70180830F2EF1EF63
S11301C0EF2EF12CF02DF701108189819A810E9484
S11301D08600807F99279595879595958795959520
S11301E0879595958795107F812BF70180830F2E36
S11301F0F6EFEF2EF12CF02DF701108189819A8111
S11302000E94860088279F70107F192BF7011083A6
S11302100F2EFBEFEF2EF12CF02DF70110818981C9
S11302209A810E948600107F959595959595959550
S1130230912BF70190839FC16130710509F050C083
S11302400F2EFCEEEF2EF12CF02DF7011081898199
S11302509A810E9486001F7082959295907F9827BC
S1130260807F9827812BF70180830F2EF1EFEF2EEB
S1130270F12CF02DF701108189819A810E9486006A
S11302801F70807F812BF70180830F2EF6EFEF2EF6
S1130290F12CF02DF701108189819A810E9486004A
S11302A088279F70959587959595879595958795BA
S11302B0959587951F70812BF70180830F2EFBEF97
S11302C0EF2EF12CF02DF701108189819A810E9483
S11302D086008827907F1F70192BF70110834BC16C
S11302E06230710509F04EC00F2EFDEEEF2EF12C99
S11302F0F02DF701108189819A810E948600107F78
S11303008F70812BF70180830F2EF2EFEF2EF12CEB
S1130310F02DF701108189819A810E948600807FE7
S1130320992795958795959587959595879595950D
S11303308795107F812BF70180830F2EF7EFEF2E27
S1130340F12CF02DF701108189819A810E94860099
S113035088279F70107F192BF70110830F2EFCEF55
S1130360EF2EF12CF02DF701108189819A810E94E2
S11303708600107F9595959595959595912BF70108
S11303809083F9C06330710509F050C00F2EFDEE63
S1130390EF2EF12CF02DF701108189819A810E94B2
S11303A086001F7082959295907F9827807F98276A
S11303B0812BF70180830F2EF2EFEF2EF12CF02D1D
S11303C0F701108189819A810E9486001F70807FC5
S11303D0812BF70180830F2EF7EFEF2EF12CF02DF8
S11303E0F701108189819A810E94860088279F7075
S11303F095958795959587959595879595958795E1
S11304001F70812BF70180830F2EFCEFEF2EF12C50
S1130410F02DF701108189819A810E948600882736
S1130420907F1F70192BF7011083A5C064307105EC
S113043009F04EC00F2EFEEEEF2EF12CF02DF70139
S1130440108189819A810E948600107F8F70812B90
S1130450F70180830F2EF3EFEF2EF12CF02DF7012F
S1130460108189819A810E948600807F99279595C1
S11304708795959587959595879595958795107FFB
S1130480812BF70180830F2EF8EFEF2EF12CF02D46
S1130490F701108189819A810E94860088279F70C4
S11304A0107F192BF70110830F2EFDEFEF2EF12C87
S11304B0F02DF701108189819A810E948600107FB6
S11304C09595959595959595912BF701908353C0A6
S11304D06530710509F04FC00F2EFEEEEF2EF12CA2
S11304E0F02DF701108189819A810E9486001F7086
S11304F082959295907F9827807F9827812BF7018A
S113050080830F2EF3EFEF2EF12CF02DF7011081E5
S113051089819A810E9486001F70807F812BF70158
S113052080830F2EF8EFEF2EF12CF02DF7011081C0
S113053089819A810E94860088279F709595879566
S11305409595879595958795959587951F70812B9A
S1130550F70180830F2EFDEFEF2EF12CF02DF70124
S1130560108189819A810E9486008827907F1F705C
S1130570192BF70110830F900F90DF91CF911F91EA
S1130580FF90EF9008958F929F92AF92BF92CF9277
S1130590DF92EF92FF92CF93DF934B015C01EA016C
S11305A024E630E040E050E00E9479110F2EFAE09A
S11305B0CF2ED12CE12CF12CF02DA70196010E9415
S11305C07911BE0180E3820F0E94AF002196C5011C
S11305D0B401A70196010E947911862FBE01805DA6
S11305E00E94AF00DF91CF91FF90EF90DF90CF900A
S11305F0BF90AF909F908F9008951F9B0BC01E9B40
S11306000CC01C9B0DC0629B0EC0639B0FC080E09E
S113061090E0089587E090E0089586E090E00895E2
S113062084E090E0089582E090E0089583E090E013
S11306300895CF92DF92EF92FF920F931F93CF937F
S1130640DF93EC018A899B89892B09F0DAC081E068
S113065090E09B8B8A8B0E94FD028730910509F004
S113066052C088859985009711F5CC84DD8481E09A
S1130670C81AD108DD86CC860C811D810F2EFDE1C0
S1130680EF2EF5E0FF2EF02D20E030E0A90160E030
S113069070E0CB010E94230F488559856C857D85C8
S11306A0072E000C880B990B0E94C30223C00497E9
S11306B009F5CE84DF8481E0C81AD108DF86CE86AE
S11306C00E811F810F2EFDE1EF2EF5E0FF2EF02DA0
S11306D020E030E0A90160E070E0CB010E94230F2C
S11306E0488559856E857F85072E000C880B990BEC
S11306F00E94C30242E050E067E070E080E090E0D6
S11307000E94C3027EC08630910509F052C08885DC
S11307109985009711F5CC84DD848FEFC81AD80A27
S1130720DD86CC860C811D810F2EFDE1EF2EF5E0D8
S1130730FF2EF02D20E030E0A90160E070E0CB0155
S11307400E94230F488559856C857D85072E000CF2
S1130750880B990B0E94C30223C0049709F5CE8429
S1130760DF848FEFC81AD80ADF86CE860E811F81F8
S11307700F2EFDE1EF2EF5E0FF2EF02D20E030E00E
S1130780A90160E070E0CB010E94230F48855985E0
S11307906E857F85072E000C880B990B0E94C3027F
S11307A042E050E066E070E080E090E00E94C30226
S11307B028C08230910559F41986188642E050E029
S11307C062E070E080E090E00E94C3021AC08330CF
S11307D0910569F484E090E09987888742E050E0CD
S11307E063E070E080E090E00E94C3020AC00497D6
S11307F041F042E050E064E070E080E090E00E946C
S1130800C302C12CD12C0F2EF7E5EF2EF0E0FF2E02
S1130810F02D8E0120E030E0A90164ED70E380E06A
S113082090E00E94230FDF91CF911F910F91FF90D1
S1130830EF90DF90CF900895CF92DF92EF92FF92E6
S11308400F931F93FC0102851385C12CD12C0F2E0D
S1130850F9E1EF2EF3E0FF2EF02D20E030E0A901C6
S113086060E070E0CB010E94230F1F910F91FF9075
S1130870EF90DF90CF900895CF92DF92EF92FF92A6
S11308800F931F93CF93DF93EC0141E06CE174E08D
S11308900E942F1142E06CE174E0CE010E942F11FE
S11308A00E811F81C12CD12C0F2EF7EBEF2EF4E01B
S11308B0FF2EF02D20E030E0A90160E070E0CB01D4
S11308C00E94230F0885198520E030E0A90160E02B
S11308D070E0CB010E94230FDF91CF911F910F9104
S11308E0FF90EF90DF90CF900895CF93DF930E9415
S11308F08100C0E0D0E0BE010D2E000C880B990BE6
S113090042E050E00E94C3022196C83E83E0D8072B
S113091091F740E050E06CE374E080E091E00E94E5
S11309204911DF91CF9108958EB190E0062E02C057
S1130930959587950A94E2F780FF0CC02EB181E06B
S113094090E002C0880F991F6A95E2F78095822390
S11309508EB90AC02EB181E090E002C0880F991FC1
S11309606A95E2F7822B8EB980E090E00895CF92E9
S1130970DF92EF92FF920F931F93CF93DF93EC01DB
S113098088859985892BF1F1CE80DF800C811D81CA
S11309900F2EF4E9EF2EF4E0FF2EF02D20E030E0EE
S11309A0A90160E070E0CB010E94230F688579857E
S11309B084EF91E00E9465112DE730E0DB010E9495
S11309C09E118B019C01992324F40D5F1F4F2F4F1F
S11309D03F4FC901B801959587957795679595958A
S11309E0879577956795C12CD12C0F2EF7EBEF2EB9
S11309F0F4E0FF2EF02D8E0120E030E0A9010E94EA
S1130A00230F12C0C12CD12C0F2EF7EBEF2EF4E0E4
S1130A10FF2EF02D8E0120E030E0A90169E07DE396
S1130A2080E090E00E94230FDF91CF911F910F91FE
S1130A30FF90EF90DF90CF900895FC01718760875D
S1130A400895CF93DF9300D000D0CDB7DEB783E312
S1130A5092E023E133E0FC01709791838083409618
S1130A6082179307C1F71092040310920303EEE672
S1130A70F1E08BE891E09183808388EA91E0968F9E
S1130A80858FA5ECB1E0B3AFA2AF1D921C92FA839F
S1130A90E983EFE6F3E0FC83EB8389819A81069690
S1130AA00E94EA118B819C81E981FA81978B868B64
S1130AB0918F808F81EC90E1948F838F15821482C3
S1130AC07D96FA83E983EB81FC81E05AFF4FFC8336
S1130AD0EB8389819A81825E9140F9F6E6E0F2E047
S1130AE0118210821582148213821282E1E6F0E0F0
S1130AF080E880831082109285001092840084E044
S1130B008093810081E080936F000F900F900F908D
S1130B100F90DF91CF910895CF93DF9300D0CDB79D
S1130B20DEB79A83898380913401909135010696CA
S1130B300E94EA11892B59F489819A819093350195
S1130B408093340161E070E006960E940A120F90CF
S1130B500F90DF91CF9108950F931F93CF93DF935D
S1130B60E0914801F0914901309761F18091380199
S1130B7090913901009731F1C0913601D09137013C
S1130B80AA81BB81109779F0468157816085718570
S1130B9016960D911D912D913C911997401B510B67
S1130BA0620B730B7AF4FC0120813181309339019B
S1130BB020933801D183C083909337018093360109
S1130BC00E948C05DF91CF911F910F9108951F9280
S1130BD00F920FB60F9211242F933F934F935F936D
S1130BE06F937F938F939F93AF93BF93EF93FF93F1
S1130BF02091400130914101409184005091850041
S1130C00C901032E000CAA0BBB0BDC019927882712
S1130C1060E070E0842B952BA62BB72B80934201C8
S1130C2090934301A0934401B0934501B09B1BC032
S1130C304091840050918500C9010196092E000C51
S1130C40AA0BBB0BDC019927882760E070E0842B9A
S1130C50952BA62BB72B8093420190934301A0932D
S1130C604401B0934501E091E201F091E301309732
S1130C7039F060E070E080914A0190914B01099550
S1130C800E94AC05FF91EF91BF91AF919F918F911D
S1130C907F916F915F914F913F912F910F900FBE74
S1130CA00F901F9018951F920F920FB60F92112458
S1130CB02F933F934F935F936F937F938F939F9360
S1130CC0AF93BF93EF93FF93209140013091410183
S1130CD04091840050918500C901032E000CAA0B99
S1130CE0BB0BDC019927882760E070E0842B952BEF
S1130CF0A62BB72B8093420190934301A093440108
S1130D00B0934501B09B1BC0409184005091850075
S1130D10C9010196092E000CAA0BBB0BDC01992713
S1130D20882760E070E0842B952BA62BB72B80934B
S1130D30420190934301A0934401B0934501E09193
S1130D40E401F091E501309739F061E070E08091C1
S1130D504C0190914D0109950E94AC05FF91EF91D2
S1130D60BF91AF919F918F917F916F915F914F91BF
S1130D703F912F910F900FBE0F901F9018951F92C7
S1130D800F920FB60F9211242F933F934F935F93BB
S1130D906F937F938F939F93AF93BF93EF93FF933F
S1130DA0209140013091410140918400509185008F
S1130DB0C901032E000CAA0BBB0BDC019927882761
S1130DC060E070E0842B952BA62BB72B8093420117
S1130DD090934301A0934401B0934501B09B1BC081
S1130DE04091840050918500C9010196092E000CA0
S1130DF0AA0BBB0BDC019927882760E070E0842BE9
S1130E00952BA62BB72B8093420190934301A0937B
S1130E104401B0934501E091E601F091E701309778
S1130E2039F062E070E080914E0190914F01099594
S1130E300E94AC05FF91EF91BF91AF919F918F916B
S1130E407F916F915F914F913F912F910F900FBEC2
S1130E500F901F9018951F920F920FB60F921124A6
S1130E602F933F934F935F936F937F938F939F93AE
S1130E70AF93BF93EF93FF932091400130914101D1
S1130E804091840050918500C901032E000CAA0BE7
S1130E90BB0BDC019927882760E070E0842B952B3D
S1130EA0A62BB72B8093420190934301A093440156
S1130EB0B0934501B09B1BC04091840050918500C4
S1130EC0C9010196092E000CAA0BBB0BDC01992762
S1130ED0882760E070E0842B952BA62BB72B80939A
S1130EE0420190934301A0934401B0934501E091E2
S1130EF0E801F091E901309739F063E070E0809106
S1130F0050019091510109950E94AC05FF91EF9118
S1130F10BF91AF919F918F917F916F915F914F910D
S1130F203F912F910F900FBE0F901F9018951F9215
S1130F300F920FB60F9211242F933F934F935F9309
S1130F406F937F938F939F93AF93BF93EF93FF938D
S1130F5020914001309141014091840050918500DD
S1130F60C901032E000CAA0BBB0BDC0199278827AF
S1130F7060E070E0842B952BA62BB72B8093420165
S1130F8090934301A0934401B0934501B09B1BC0CF
S1130F904091840050918500C9010196092E000CEE
S1130FA0AA0BBB0BDC019927882760E070E0842B37
S1130FB0952BA62BB72B8093420190934301A093CA
S1130FC04401B0934501E091EA01F091EB013097BF
S1130FD039F064E070E080915201909153010995D9
S1130FE00E94AC05FF91EF91BF91AF919F918F91BA
S1130FF07F916F915F914F913F912F910F900FBE11
S11310000F901F9018951F920F920FB60F921124F4
S11310102F933F934F935F936F937F938F939F93FC
S1131020AF93BF93EF93FF9320914001309141011F
S11310304091840050918500C901032E000CAA0B35
S1131040BB0BDC019927882760E070E0842B952B8B
S1131050A62BB72B8093420190934301A0934401A4
S1131060B0934501B09B1BC0409184005091850012
S1131070C9010196092E000CAA0BBB0BDC019927B0
S1131080882760E070E0842B952BA62BB72B8093E8
S1131090420190934301A0934401B0934501E09130
S11310A0EC01F091ED01309739F065E070E080914A
S11310B054019091550109950E94AC05FF91EF915F
S11310C0BF91AF919F918F917F916F915F914F915C
S11310D03F912F910F900FBE0F901F9018951F9264
S11310E00F920FB60F9211242F933F934F935F9358
S11310F06F937F938F939F93AF93BF93EF93FF93DC
S1131100209140013091410140918400509185002B
S1131110C901032E000CAA0BBB0BDC0199278827FD
S113112060E070E0842B952BA62BB72B80934201B3
S113113090934301A0934401B0934501B09B1BC01D
S11311404091840050918500C9010196092E000C3C
S1131150AA0BBB0BDC019927882760E070E0842B85
S1131160952BA62BB72B8093420190934301A09318
S11311704401B0934501E091EE01F091EF01309705
S113118039F066E070E0809156019091570109951D
S11311900E94AC05FF91EF91BF91AF919F918F9108
S11311A07F916F915F914F913F912F910F900FBE5F
S11311B00F901F9018951F920F920FB60F92112443
S11311C02F933F934F935F936F937F938F939F934B
S11311D0AF93BF93EF93FF9320914001309141016E
S11311E04091840050918500C901032E000CAA0B84
S11311F0BB0BDC019927882760E070E0842B952BDA
S1131200A62BB72B8093420190934301A0934401F2
S1131210B0934501B09B1BC0409184005091850060
S1131220C9010196092E000CAA0BBB0BDC019927FE
S1131230882760E070E0842B952BA62BB72B809336
S1131240420190934301A0934401B0934501E0917E
S1131250F001F091F101309739F067E070E080918E
S113126058019091590109950E94AC05FF91EF91A5
S1131270BF91AF919F918F917F916F915F914F91AA
S11312803F912F910F900FBE0F901F9018951F92B2
S11312900F920FB60F9211242F933F934F935F93A6
S11312A06F937F938F939F93AF93BF93EF93FF932A
S11312B0209140013091410140918400509185007A
S11312C0C901032E000CAA0BBB0BDC01992788274C
S11312D060E070E0842B952BA62BB72B8093420102
S11312E090934301A0934401B0934501B09B1BC06C
S11312F04091840050918500C9010196092E000C8B
S1131300AA0BBB0BDC019927882760E070E0842BD3
S1131310952BA62BB72B8093420190934301A09366
S11313204401B0934501E091F201F091F30130974B
S113133039F068E070E080915A0190915B01099561
S11313400E94AC05FF91EF91BF91AF919F918F9156
S11313507F916F915F914F913F912F910F900FBEAD
S11313600F901F9018951F920F920FB60F92112491
S11313702F933F934F935F936F937F938F939F9399
S1131380AF93BF93EF93FF932091400130914101BC
S11313904091840050918500C901032E000CAA0BD2
S11313A0BB0BDC019927882760E070E0842B952B28
S11313B0A62BB72B8093420190934301A093440141
S11313C0B0934501B09B1BC04091840050918500AF
S11313D0C9010196092E000CAA0BBB0BDC0199274D
S11313E0882760E070E0842B952BA62BB72B809385
S11313F0420190934301A0934401B0934501E091CD
S1131400F401F091F501309739F069E070E08091D2
S11314105C0190915D0109950E94AC05FF91EF91EB
S1131420BF91AF919F918F917F916F915F914F91F8
S11314303F912F910F900FBE0F901F9018951F9200
S11314400F920FB60F9211242F933F934F935F93F4
S11314506F937F938F939F93AF93BF93EF93FF9378
S113146020914001309141014091840050918500C8
S1131470C901032E000CAA0BBB0BDC01992788279A
S113148060E070E0842B952BA62BB72B8093420150
S113149090934301A0934401B0934501B09B1BC0BA
S11314A04091840050918500C9010196092E000CD9
S11314B0AA0BBB0BDC019927882760E070E0842B22
S11314C0952BA62BB72B8093420190934301A093B5
S11314D04401B0934501E091F601F091F701309792
S11314E039F06AE070E080915E0190915F010995A6
S11314F00E94AC05FF91EF91BF91AF919F918F91A5
S11315007F916F915F914F913F912F910F900FBEFB
S11315100F901F9018951F920F920FB60F921124DF
S11315202F933F934F935F936F937F938F939F93E7
S1131530AF93BF93EF93FF9320914001309141010A
S11315404091840050918500C901032E000CAA0B20
S1131550BB0BDC019927882760E070E0842B952B76
S1131560A62BB72B8093420190934301A09344018F
S1131570B0934501B09B1BC04091840050918500FD
S1131580C9010196092E000CAA0BBB0BDC0199279B
S1131590882760E070E0842B952BA62BB72B8093D3
S11315A0420190934301A0934401B0934501E0911B
S11315B0F801F091F901309739F06BE070E0809117
S11315C060019091610109950E94AC05FF91EF9132
S11315D0BF91AF919F918F917F916F915F914F9147
S11315E03F912F910F900FBE0F901F9018951F924F
S11315F00F920FB60F9211242F933F934F935F9343
S11316006F937F938F939F93AF93BF93EF93FF93C6
S11316102091400130914101409184005091850016
S1131620C901032E000CAA0BBB0BDC0199278827E8
S113163060E070E0842B952BA62BB72B809342019E
S113164090934301A0934401B0934501B09B1BC008
S11316504091840050918500C9010196092E000C27
S1131660AA0BBB0BDC019927882760E070E0842B70
S1131670952BA62BB72B8093420190934301A09303
S11316804401B0934501E091FA01F091FB013097D8
S113169039F06CE070E080916201909163010995EA
S11316A00E94AC05FF91EF91BF91AF919F918F91F3
S11316B07F916F915F914F913F912F910F900FBE4A
S11316C00F901F9018951F920F920FB60F9211242E
S11316D02F933F934F935F936F937F938F939F9336
S11316E0AF93BF93EF93FF93209140013091410159
S11316F04091840050918500C901032E000CAA0B6F
S1131700BB0BDC019927882760E070E0842B952BC4
S1131710A62BB72B8093420190934301A0934401DD
S1131720B0934501B09B1BC040918400509185004B
S1131730C9010196092E000CAA0BBB0BDC019927E9
S1131740882760E070E0842B952BA62BB72B809321
S1131750420190934301A0934401B0934501E09169
S1131760FC01F091FD01309739F06DE070E080915B
S113177064019091650109950E94AC05FF91EF9178
S1131780BF91AF919F918F917F916F915F914F9195
S11317903F912F910F900FBE0F901F9018951F929D
S11317A00F920FB60F9211242F933F934F935F9391
S11317B06F937F938F939F93AF93BF93EF93FF9315
S11317C02091400130914101409184005091850065
S11317D0C901032E000CAA0BBB0BDC019927882737
S11317E060E070E0842B952BA62BB72B80934201ED
S11317F090934301A0934401B0934501B09B1BC057
S11318004091840050918500C9010196092E000C75
S1131810AA0BBB0BDC019927882760E070E0842BBE
S1131820952BA62BB72B8093420190934301A09351
S11318304401B0934501E091FE01F091FF0130971E
S113184039F06EE070E0809166019091670109952E
S11318500E94AC05FF91EF91BF91AF919F918F9141
S11318607F916F915F914F913F912F910F900FBE98
S11318700F901F9018951F920F920FB60F9211247C
S11318802F933F934F935F936F937F938F939F9384
S1131890AF93BF93EF93FF932091400130914101A7
S11318A04091840050918500C901032E000CAA0BBD
S11318B0BB0BDC019927882760E070E0842B952B13
S11318C0A62BB72B8093420190934301A09344012C
S11318D0B0934501B09B1BC040918400509185009A
S11318E0C9010196092E000CAA0BBB0BDC01992738
S11318F0882760E070E0842B952BA62BB72B809370
S1131900420190934301A0934401B0934501E091B7
S11319100002F0910102309739F06FE070E080919D
S113192068019091690109950E94AC05FF91EF91BE
S1131930BF91AF919F918F917F916F915F914F91E3
S11319403F912F910F900FBE0F901F9018951F92EB
S11319500F920FB60F9211242F933F934F935F93DF
S11319606F937F938F939F93AF93BF93EF93FF9363
S113197020914001309141014091840050918500B3
S1131980C901032E000CAA0BBB0BDC019927882785
S113199060E070E0842B952BA62BB72B809342013B
S11319A090934301A0934401B0934501B09B1BC0A5
S11319B04091840050918500C9010196092E000CC4
S11319C0AA0BBB0BDC019927882760E070E0842B0D
S11319D0952BA62BB72B8093420190934301A093A0
S11319E04401B0934501E0910202F0910302309763
S11319F039F060E170E080916A0190916B01099582
S1131A000E94AC05FF91EF91BF91AF919F918F918F
S1131A107F916F915F914F913F912F910F900FBEE6
S1131A200F901F9018951F920F920FB60F921124CA
S1131A302F933F934F935F936F937F938F939F93D2
S1131A40AF93BF93EF93FF932091400130914101F5
S1131A504091840050918500C901032E000CAA0B0B
S1131A60BB0BDC019927882760E070E0842B952B61
S1131A70A62BB72B8093420190934301A09344017A
S1131A80B0934501B09B1BC04091840050918500E8
S1131A90C9010196092E000CAA0BBB0BDC01992786
S1131AA0882760E070E0842B952BA62BB72B8093BE
S1131AB0420190934301A0934401B0934501E09106
S1131AC00402F0910502309739F061E170E08091F1
S1131AD06C0190916D0109950E94AC05FF91EF9105
S1131AE0BF91AF919F918F917F916F915F914F9132
S1131AF03F912F910F900FBE0F901F901895EF926A
S1131B00FF920F931F93CF93DF937B01EB01A88187
S1131B10B981109761F1FC01068117812085318517
S1131B2016964D915D916D917C9119970417150747
S1131B302607370714F41BC0DF01ED91FC911197C0
S1131B40309749F0468157816085718504171507E0
S1131B50260737078CF7EC01F983E883109721F403
S1131B60F7019183808307C08D939C9304C0EC019B
S1131B70B983A883F5CFDF91CF911F910F91FF9087
S1131B80EF900895EF92FF920F931F93CF93DF93FB
S1131B907B01EB01A881B981109761F1FC010281FD
S1131BA013812481358112964D915D916D917C91C3
S1131BB01597041715072607370714F41BC0DF0110
S1131BC0ED91FC911197309749F0428153816481E2
S1131BD0758104171507260737078CF7EC01F9837D
S1131BE0E883109721F4F7019183808307C08D93D4
S1131BF09C9304C0EC01B983A883F5CFDF91CF9106
S1131C001F910F91FF90EF900895DC01ED91FC91ED
S1131C101197309759F48FEF8093EC008093ED0087
S1131C208093EE0081E083BF8895FDCF20813181D0
S1131C302D933C93CF0108951F920F920FB60F92EC
S1131C4011242F933F934F935F936F937F938F93BD
S1131C509F93EF93FF9380914001909141010196EE
S1131C609093410180934001E0914601F091470136
S1131C70309701F1428153816481758186179707FA
S1131C80C9F4CA012091840030918500421B530B92
S1131C904130510529F4809184009091850001968A
S1131CA09093890080938800EFE6F0E08081826061
S1131CB0808305C0EFE6F0E080818D7F8083FF9113
S1131CC0EF919F918F917F916F915F914F913F9190
S1131CD02F910F900FBE0F901F9018951F920F9287
S1131CE00FB60F921124CF92DF92EF92FF922F93AF
S1131CF03F934F935F936F937F938F939F93AF9390
S1131D00BF93EF93FF93C0904001D0904101209185
S1131D10840030918500B0990FC00D2C000CEE08A2
S1131D20FF08D601992788276901E12CF12CC82ADC
S1131D30D92AEA2AFB2A15C0209184003091850013
S1131D408FEFC81AD80A0D2C000CEE08FF08D60134
S1131D50992788276901E12CF12CC82AD92AEA2A73
S1131D60FB2AE0914601F0914701309709F442C003
S1131D7082819381A481B5818C199D09AE09BF0923
S1131D80181619061A061B06ECF186E491E00E9467
S1131D90050E68E471E00E947F0DE0914601F09128
S1131DA04701309739F182819381A481B5818C19DF
S1131DB09D09AE09BF09181619061A061B062CF749
S1131DC021C09C014091840050918500841B950B97
S1131DD0019731F420918400309185002F5F3F4FAB
S1131DE03093890020938800EFE6F0E080818260E0
S1131DF0808305C0EFE6F0E080818D7F80830E94C0
S1131E00AC050CC082819381A481B58120914001ED
S1131E10309141012A173B0769F7D3CFFF91EF9126
S1131E20BF91AF919F918F917F916F915F914F91EE
S1131E303F912F91FF90EF90DF90CF900F900FBEC6
S1131E400F901F9018953F924F925F926F927F92DE
S1131E508F929F92AF92BF92CF92DF92EF92FF92B6
S1131E600F931F93CF93DF932B013C0149015A0138
S1131E708FB78078382EF8948AE391E00E94050E9B
S1131E80EC011B870A87FD86EC86DF86CE8633202D
S1131E9061F0E0913401F09135010280F381E02D8D
S1131EA082819381A481B58108C08091420190917F
S1131EB04301A0914401B0914501480E591E6A1E88
S1131EC07B1E4A825B826C827D82181419041A0478
S1131ED01B0444F00F2E88248A94982CA82CFFE726
S1131EE0BF2EF02D840C951CA61CB71C8E829F82DD
S1131EF0A886B98680914001909141014091840067
S1131F0050918500B0990EC0092E000CAA0BBB0B92
S1131F10DC019927882760E070E0842B952BA62BA1
S1131F20B72B13C020918400309185000196092EAF
S1131F30000CAA0BBB0BDC0199278827A90160E0E0
S1131F4070E0842B952BA62BB72B481A590A6A0AE2
S1131F507B0A1414150416041704ACF566E471E046
S1131F60CE010E94C20DE0914601F09147013097E5
S1131F7021F182819381A481B58120914001309126
S1131F8041012A173B07C9F49C01409184005091F8
S1131F908500841B950B019731F4209184003091C6
S1131FA085002F5F3F4F3093890020938800EFE630
S1131FB0F0E080818260808341C0EFE6F0E08081C0
S1131FC08D7F80833BC068E471E0CE010E947F0D69
S1131FD03320B9F18091380190913901009781F152
S1131FE0E0913601F0913701209148013091490187
S1131FF002811381D90116964D915D916D917C9169
S11320001997D80116960D911D912D913C91199710
S1132010401B510B620B730B9AF4DC012D913C9124
S113202011973093390120933801ED93FC939093E9
S11320303701809336010E948C0502C0332009F0D9
S11320407894CE01DF91CF911F910F91FF90EF9083
S1132050DF90CF90BF90AF909F908F907F906F90C4
S11320605F904F903F900895CF92DF92EF92FF924E
S11320700F931F93CF93DF93EC017B016A011FB78A
S11320801078F894A881B981109761F11496ED91B4
S1132090FC911597309741F0A081B1811496ED9190
S11320A0FC9115973097C1F7209134013091350197
S11320B02A173B0721F0112309F43DC007C011235F
S11320C009F43CC078948FEF9FEF52C08A819B81C2
S11320D00097D1F1FC011582148236C0789480E017
S11320E090E046C0809134019091350199838883B2
S11320F0112329F08A819B81019709F07894B60114
S1132100CE01F7010995F82E092F8FB7F89419829B
S113211018828A819B818230910538F01B821A8251
S1132120FC01158214820E948C05112351F07894CD
S11321308F2D902F1DC08FEF9FEF1AC08FEF9FEF51
S113214017C08F2D902F14C03B832A83F901D583A8
S1132150C483CD010E948C05E0913401F0913501D6
S113216082819381892B09F4B9CFF983E883C2CFA3
S1132170DF91CF911F910F91FF90EF90DF90CF905F
S11321800895009134011091350188E491E00E9492
S1132190050EEC01D80113969C938E9312977894B4
S11321A04E855F856C857D858A859B850E9434106C
S11321B08FB7F89480913A0190913B019983888379
S11321C0D0933B01C0933A01E0913601F09137017D
S11321D000811181E8012A813B81A0914801B091DD
S11321E049011097C1F02115310559F216968D91C8
S11321F09D910D90BC91A02DE9014E815F81688570
S11322007985841B950BA60BB70B181619061A06AD
S11322101B060CF0B6CF1093370100933601809162
S113222038019091390191838083F0933901E093CF
S11322303801A0913601B09137011496ED91FC91CB
S11322401597309741F0A081B1811496ED91FC91DE
S113225015973097C1F7CD010E948C0592CF42317A
S1132260B8F42FB7F89450E0440F551FFA01E65B19
S1132270FE4F91838083FA01EE51FE4F7183608398
S113228041E050E0FC015383428322230CF4789410
S113229008958C017B016A018FB7F8940E9421058F
S11322A07894E114F10441F020E030E0A90160E009
S11322B070E0CB010E94230F8FB7F8940E94AC0505
S11322C0789481E083BF8895FDCF97FB072E16F4A1
S11322D0009407D077FD09D00E94A51107FC05D012
S11322E03EF4909581959F4F0895709561957F4F29
S11322F00895052E97FB1EF400940E94901157FD3B
S113230007D00E94B91107FC03D04EF40C9490112D
S113231050954095309521953F4F4F4F5F4F08950D
S113232090958095709561957F4F8F4F9F4F08953D
S1132330EE0FFF1F0590F491E02D09940E94DB112C
S1132340B7FF0895821B930B0895AA1BBB1B51E191
S113235007C0AA1FBB1FA617B70710F0A61BB70B11
S1132360881F991F5A95A9F780959095BC01CD01B6
S11323700895A1E21A2EAA1BBB1BFD010DC0AA1FC2
S1132380BB1FEE1FFF1FA217B307E407F50720F0DA
S1132390A21BB30BE40BF50B661F771F881F991F55
S11323A01A9469F760957095809590959B01AC019E
S11323B0BD01CF010895A29FB001B39FC001A39FA7
S11323C0700D811D1124911DB29F700D811D11246A
S11323D0911D0895DC012D923D924D925D926D9276
S11323E07D928D929D92AD92BD92CD92DD92ED92B1
S11323F0FD920D931D93CD93DD93FF91EF918DB7D6
S11324008D938EB78D938FB78D93ED93FD9388271E
S113241099270994DC01CB0181309105811D2D9010
S11324203D904D905D906D907D908D909D90AD9080
S1132430BD90CD90DD90ED90FD900D911D91CD91CD
S1132440DD91ED91FD910D90F894FEBF0FBEEDBFAF
S10D2450ED91FD910994F894FFCF7B
S113245A000000003C012A0120010C0100000000D8
S113246A2A01200100000000000000000000000012
S113247A000000003C0106000000000000003C01CE
S10F248A04000100060206026E01230299
S9030000FC
