S01400006C616262345F6430303033652E7372656360
S11300000C9438000C9405070C9471070C94DD07CC
S11300100C9449080C94B5080C9455000C948C0F5E
S11300200C9455000C943A0F0C9421090C948D09EE
S11300300C94F9090C94650A0C94D10A0C943D0BA8
S11300400C94A90B0C94150C0C94810C0C94ED0CD1
S11300500C94590D0C94C50D0C94310EA30085001D
S113006088008B008E009100940097009A009D00F8
S113007011241FBECFEFD4E0DEBFCDBF11E0A0E05E
S1130080B1E0E6E9F6E202C005900D92AA34B107A8
S1130090D9F724E0AAE4B1E001C01D92A13AB20765
S11300A0E1F70E949D050C9449130C940000E1E6CD
S11300B0F0E080E88083108287EB8093E50087E09E
S11300C08093E6008FE08093E70080EC8093E40067
S11300D0089585B1806D85B98EB18C608EB98DB36C
S11300E0806C8DBBECE6F0E08081806D8083EBE674
S11300F0F0E080818C60808308958A30910500F55A
S1130100FC01E25DFF4F0C94B61280E890E2089582
S113011081E19EE1089581E19BE1089580E59BE002
S1130120089581E49BE1089581E49FE1089581E1CC
S113013091E0089581E59FE1089581E59BE00895AC
S113014080E090E0089581E595E10895EF92FF92B3
S11301501F93CF93DF9300D0CDB7DEB71A821982F5
S11301606630710508F0FEC190ED980F9A3028F0C2
S11301708AE090E09A83898304C090E0C0979A83D0
S113018089836115710509F04EC00F2EFCEEEF2E28
S1130190F12CF02DF701108189819A810E947D0054
S11301A0107F8F70812BF70180830F2EF1EFEF2EDC
S11301B0F12CF02DF701108189819A810E947D0034
S11301C0807F99279595879595958795959587959A
S11301D095958795107F812BF70180830F2EF6EF7D
S11301E0EF2EF12CF02DF701108189819A810E9464
S11301F07D0088279F70107F192BF70110830F2E25
S1130200FBEFEF2EF12CF02DF701108189819A81FB
S11302100E947D00107F9595959595959595912BC8
S1130220F70190839FC16130710509F050C00F2E12
S1130230FCEEEF2EF12CF02DF701108189819A81CB
S11302400E947D001F7082959295907F9827807FF1
S11302509827812BF70180830F2EF1EFEF2EF12CDD
S1130260F02DF701108189819A810E947D001F7011
S1130270807F812BF70180830F2EF6EFEF2EF12C78
S1130280F02DF701108189819A810E947D008827D1
S11302909F7095958795959587959595879595954F
S11302A087951F70812BF70180830F2EFBEFEF2EB4
S11302B0F12CF02DF701108189819A810E947D0033
S11302C08827907F1F70192BF70110834BC1623070
S11302D0710509F04EC00F2EFDEEEF2EF12CF02D1E
S11302E0F701108189819A810E947D00107F8F70AF
S11302F0812BF70180830F2EF2EFEF2EF12CF02DDE
S1130300F701108189819A810E947D00807F99275D
S113031095958795959587959595879595958795C1
S1130320107F812BF70180830F2EF7EFEF2EF12C36
S1130330F02DF701108189819A810E947D00882720
S11303409F70107F192BF70110830F2EFCEFEF2EF7
S1130350F12CF02DF701108189819A810E947D0092
S1130360107F9595959595959595912BF70190838B
S1130370F9C06330710509F050C00F2EFDEEEF2E69
S1130380F12CF02DF701108189819A810E947D0062
S11303901F7082959295907F9827807F9827812B54
S11303A0F70180830F2EF2EFEF2EF12CF02DF701E1
S11303B0108189819A810E947D001F70807F812B2A
S11303C0F70180830F2EF7EFEF2EF12CF02DF701BC
S11303D0108189819A810E947D0088279F7095955C
S11303E087959595879595958795959587951F708C
S11303F0812BF70180830F2EFCEFEF2EF12CF02DD3
S1130400F701108189819A810E947D008827907F5D
S11304101F70192BF7011083A5C06430710509F012
S11304204EC00F2EFEEEEF2EF12CF02DF7011081B1
S113043089819A810E947D00107F8F70812BF70142
S113044080830F2EF3EFEF2EF12CF02DF7011081A6
S113045089819A810E947D00807F9927959587954F
S1130460959587959595879595958795107F812B7B
S1130470F70180830F2EF8EFEF2EF12CF02DF7010A
S1130480108189819A810E947D0088279F70107F46
S1130490192BF70110830F2EFDEFEF2EF12CF02D09
S11304A0F701108189819A810E947D00107F9595C2
S11304B0959595959595912BF701908353C065304B
S11304C0710509F04FC00F2EFEEEEF2EF12CF02D2A
S11304D0F701108189819A810E947D001F708295A5
S11304E09295907F9827807F9827812BF7018083AE
S11304F00F2EF3EFEF2EF12CF02DF70110818981EF
S11305009A810E947D001F70807F812BF701808378
S11305100F2EF8EFEF2EF12CF02DF70110818981C9
S11305209A810E947D0088279F709595879595955F
S1130530879595958795959587951F70812BF701DC
S113054080830F2EFDEFEF2EF12CF02DF70110819B
S113055089819A810E947D008827907F1F70192BC2
S1130560F70110830F900F90DF91CF911F91FF90AF
S1130570EF9008958F929F92AF92BF92CF92DF92A5
S1130580EF92FF92CF93DF934B015C01EA0124E6E3
S113059030E040E050E00E9497120F2EFAE0CF2E98
S11305A0D12CE12CF12CF02DA70196010E94971279
S11305B0BE0180E3820F0E94A6002196C501B4010A
S11305C0A70196010E949712862FBE01805D0E94AA
S11305D0A600DF91CF91FF90EF90DF90CF90BF9076
S11305E0AF909F908F9008950E9457000E946900D9
S11305F081E08093FE0040E050E060E070E0CB01D9
S11306000E94BA0244E050E060E070E0CB010E9436
S1130610BA0208951F9B0BC01E9B0CC01C9B0DC0EF
S1130620629B0EC0639B0FC080E090E0089587E05A
S113063090E0089586E090E0089584E090E00895C5
S113064082E090E0089583E090E00895CF92DF92F5
S1130650EF92FF920F931F93CF93DF93EC010E89D8
S11306601F890E940A030817190729F581E090E001
S1130670998F888FC12CD12C0F2EF6E6EF2EF3E044
S1130680FF2EF02D8E0120E030E0A90160E070E043
S1130690CB010E9441100F2EF6E2EF2EF3E0FF2E65
S11306A0F02D20E030E0A90165E37CE080E090E0FB
S11306B00E94411002C0198E188EDF91CF911F91B4
S11306C00F91FF90EF90DF90CF900895CF92DF923B
S11306D0EF92FF920F931F93CF93DF93EC010E944D
S11306E00A039F8B8E8B2A8D3B8D121613060CF4F6
S11306F0B8C18430910509F406C144F482309105EF
S113070009F4E5C0039709F4EFC0ABC18630910545
S113071009F46FC0079709F0A4C1888599850097EB
S113072031F5CC84DD841C141D040CF046C081E03A
S1130730C81AD108DD86CC860C811D810F2EF1E309
S1130740EF2EF6E0FF2EF02D20E030E0A90160E06E
S113075070E0CB010E944110488559856C857D85E8
S1130760072E000C880B990B0E94BA0226C004972E
S113077021F5CE84DF841C141D04FCF481E0C81A26
S1130780D108DF86CE860E811F810F2EF1E3EF2E76
S1130790F6E0FF2EF02D20E030E0A90160E070E0EB
S11307A0CB010E944110488559856E857F85072EAF
S11307B0000C880B990B0E94BA028A8D9B8D0296BD
S11307C09B8F8A8F888D998D892B09F054C1C12CF8
S11307D0D12C0F2EF6E2EF2EF3E0FF2EF02D8E013A
S11307E020E030E0A90160E070E0CB010E944110FC
S11307F042C188859985009739F5CC84DD8483E6E8
S1130800C816D1040CF047C08FEFC81AD80ADD8689
S1130810CC860C811D810F2EF1E3EF2EF6E0FF2E26
S1130820F02D20E030E0A90160E070E0CB010E94EF
S11308304110488559856C857D85072E000C880BF1
S1130840990B0E94BA0227C0049729F5CE84DF844D
S113085083E6C816D104FCF48FEFC81AD80ADF86E1
S1130860CE860E811F810F2EF1E3EF2EF6E0FF2ED0
S1130870F02D20E030E0A90160E070E0CB010E949F
S11308804110488559856E857F85072E000C880B9D
S1130890990B0E94BA028A8D9B8D02969B8F8A8F38
S11308A0888D998D892B09F0E6C0C12CD12C0F2E8F
S11308B0F6E2EF2EF3E0FF2EF02D8E0120E030E083
S11308C0A90160E070E0CB010E944110D4C01986F8
S11308D018861092EF0081E08093FE008A8D9B8D34
S11308E002969B8F8A8FC7C084E090E0998788879F
S11308F081E08093EF001092FE008A8D9B8D02961A
S11309009B8F8A8FB8C088859985009709F04FC05E
S1130910CC84DD84C114D10449F10C811D810F2ED6
S1130920F5E3EF2EF6E0FF2EF02D20E030E0A901F4
S113093060E070E0CB010E9441108C859D85998B0D
S1130940888B0C811D81C12CD12C0F2EF1E3EF2E4D
S1130950F6E0FF2EF02D20E030E0A90160E070E029
S1130960CB010E9441101D861C8616C00C811D817E
S1130970C12CD12C0F2EF9E3EF2EF6E0FF2EF02D33
S113098020E030E0A90160E070E0CB010E9441105A
S1130990888999899D878C87488559856C857D854B
S11309A0072E000C880B990B0E94BA0251C00497C1
S11309B009F04EC0CE84DF84C114D10449F10E8104
S11309C01F810F2EF5E3EF2EF6E0FF2EF02D20E031
S11309D030E0A90160E070E0CB010E9441108E85F7
S11309E09F859B8B8A8B0E811F81C12CD12C0F2E4E
S11309F0F1E3EF2EF6E0FF2EF02D20E030E0A90128
S1130A0060E070E0CB010E9441101F861E8616C074
S1130A100E811F81C12CD12C0F2EF9E3EF2EF6E0AD
S1130A20FF2EF02D20E030E0A90160E070E0CB0162
S1130A300E9441108A899B899F878E8748855985A2
S1130A406E857F85072E000C880B990B0E94BA02D5
S1130A5042E050E064E070E080E090E00E94BA027E
S1130A600AC01B8E1A8E42E050E062E070E080E023
S1130A7090E00E94BA02DF91CF911F910F91FF90F5
S1130A80EF90DF90CF900895CF92DF92EF92FF9294
S1130A900F931F93FC0102851385C12CD12C0F2EBB
S1130AA0F6E6EF2EF3E0FF2EF02D20E030E0A90172
S1130AB060E070E0CB010E9441101F910F91FF9004
S1130AC0EF90DF90CF900895CF92DF92EF92FF9254
S1130AD00F931F93CF93DF93EC0141E064E475E03F
S1130AE00E944D1242E064E475E0CE010E944D1272
S1130AF00E811F81C12CD12C0F2EFBECEF2EF5E0C3
S1130B00FF2EF02D20E030E0A90160E070E0CB0181
S1130B100E9441100885198520E030E0A90160E0B9
S1130B2070E0CB010E944110DF91CF911F910F9192
S1130B30FF90EF90DF90CF9008950E94F40240E080
S1130B4050E064E675E080E091E00E946712089549
S1130B508EB190E0062E02C0959587950A94E2F72F
S1130B6080FF0CC02EB181E090E002C0880F991F75
S1130B706A95E2F7809582238EB90AC02EB181E08E
S1130B8090E002C0880F991F6A95E2F7822B8EB914
S1130B9080E090E00895CF92DF92EF92FF920F935E
S1130BA01F93CF93DF93EC0188859985892BF1F10D
S1130BB0CE80DF800C811D810F2EF8EAEF2EF5E048
S1130BC0FF2EF02D20E030E0A90160E070E0CB01C1
S1130BD00E9441106885798584EF91E00E94831218
S1130BE02DE730E0DB010E94BC128B019C019923AC
S1130BF024F40D5F1F4F2F4F3F4FC901B801959546
S1130C008795779567959595879577956795C12C81
S1130C10D12C0F2EFBECEF2EF5E0FF2EF02D8E01E4
S1130C2020E030E0A9010E94411012C0C12CD12C57
S1130C300F2EFBECEF2EF5E0FF2EF02D8E0120E0C1
S1130C4030E0A90169E07DE380E090E00E9441107A
S1130C50DF91CF911F910F91FF90EF90DF90CF9094
S1130C600895FC01718760870895FC01738762878A
S1130C700895FC0122853385318720870895CF9319
S1130C80DF9300D000D0CDB7DEB781E492E021E25B
S1130C9033E0FC0170979183808340968217930719
S1130CA0C1F71092120310921103ECE7F1E089E905
S1130CB091E09183808386EB91E0968F858FA3EDFD
S1130CC0B1E0B3AFA2AF1D921C92FA83E983EDE7C2
S1130CD0F3E0FC83EB8389819A8106960E940813D2
S1130CE08B819C81E981FA81978B868B918F808F90
S1130CF08FED91E1948F838F158214827D96FA8310
S1130D00E983EB81FC81E05AFF4FFC83EB8389810B
S1130D109A81805F9140F9F6E4E1F2E01182108259
S1130D201582148213821282E1E6F0E080E8808367
S1130D301082109285001092840084E080938100D8
S1130D4081E080936F000F900F900F900F90DF91D0
S1130D50CF910895CF93DF9300D0CDB7DEB79A83B8
S1130D608983809142019091430106960E94081361
S1130D70892B59F489819A8190934301809342018C
S1130D8061E070E006960E9428130F900F90DF91A7
S1130D90CF9108950F931F93CF93DF93E091560162
S1130DA0F0915701309761F180914601909147018C
S1130DB0009731F1C0914401D0914501AA81BB81D2
S1130DC0109779F0468157816085718516960D914B
S1130DD01D912D913C911997401B510B620B730B84
S1130DE07AF4FC012081318130934701209346013C
S1130DF0D183C08390934501809344010E94AA0645
S1130E00DF91CF911F910F9108951F920F920FB60A
S1130E100F9211242F933F934F935F936F937F937C
S1130E208F939F93AF93BF93EF93FF9320914E01C2
S1130E3030914F014091840050918500C901032EE7
S1130E40000CAA0BBB0BDC019927882760E070E03B
S1130E50842B952BA62BB72B809350019093510193
S1130E60A0935201B0935301B09B1BC040918400E6
S1130E7050918500C9010196092E000CAA0BBB0BE9
S1130E80DC019927882760E070E0842B952BA62B42
S1130E90B72B8093500190935101A0935201B093CA
S1130EA05301E091F001F091F101309739F060E0E5
S1130EB070E0809158019091590109950E94CA06E9
S1130EC0FF91EF91BF91AF919F918F917F916F911E
S1130ED05F914F913F912F910F900FBE0F901F90F4
S1130EE018951F920F920FB60F9211242F933F93D0
S1130EF04F935F936F937F938F939F93AF93BF931E
S1130F00EF93FF9320914E0130914F014091840063
S1130F1050918500C901032E000CAA0BBB0BDC0108
S1130F209927882760E070E0842B952BA62BB72B9C
S1130F308093500190935101A0935201B0935301B7
S1130F40B09B1BC04091840050918500C90101965B
S1130F50092E000CAA0BBB0BDC019927882760E043
S1130F6070E0842B952BA62BB72B80935001909384
S1130F705101A0935201B0935301E091F201F09119
S1130F80F301309739F061E070E080915A0190915B
S1130F905B0109950E94CA06FF91EF91BF91AF9141
S1130FA09F918F917F916F915F914F913F912F917D
S1130FB00F900FBE0F901F9018951F920F920FB6AF
S1130FC00F9211242F933F934F935F936F937F93CB
S1130FD08F939F93AF93BF93EF93FF9320914E0111
S1130FE030914F014091840050918500C901032E36
S1130FF0000CAA0BBB0BDC019927882760E070E08A
S1131000842B952BA62BB72B8093500190935101E1
S1131010A0935201B0935301B09B1BC04091840034
S113102050918500C9010196092E000CAA0BBB0B37
S1131030DC019927882760E070E0842B952BA62B90
S1131040B72B8093500190935101A0935201B09318
S11310505301E091F401F091F501309739F062E029
S113106070E080915C0190915D0109950E94CA062F
S1131070FF91EF91BF91AF919F918F917F916F916C
S11310805F914F913F912F910F900FBE0F901F9042
S113109018951F920F920FB60F9211242F933F931E
S11310A04F935F936F937F938F939F93AF93BF936C
S11310B0EF93FF9320914E0130914F0140918400B2
S11310C050918500C901032E000CAA0BBB0BDC0157
S11310D09927882760E070E0842B952BA62BB72BEB
S11310E08093500190935101A0935201B093530106
S11310F0B09B1BC04091840050918500C9010196AA
S1131100092E000CAA0BBB0BDC019927882760E091
S113111070E0842B952BA62BB72B809350019093D2
S11311205101A0935201B0935301E091F601F09163
S1131130F701309739F063E070E080915E0190919F
S11311405F0109950E94CA06FF91EF91BF91AF918B
S11311509F918F917F916F915F914F913F912F91CB
S11311600F900FBE0F901F9018951F920F920FB6FD
S11311700F9211242F933F934F935F936F937F9319
S11311808F939F93AF93BF93EF93FF9320914E015F
S113119030914F014091840050918500C901032E84
S11311A0000CAA0BBB0BDC019927882760E070E0D8
S11311B0842B952BA62BB72B809350019093510130
S11311C0A0935201B0935301B09B1BC04091840083
S11311D050918500C9010196092E000CAA0BBB0B86
S11311E0DC019927882760E070E0842B952BA62BDF
S11311F0B72B8093500190935101A0935201B09367
S11312005301E091F801F091F901309739F064E06D
S113121070E0809160019091610109950E94CA0675
S1131220FF91EF91BF91AF919F918F917F916F91BA
S11312305F914F913F912F910F900FBE0F901F9090
S113124018951F920F920FB60F9211242F933F936C
S11312504F935F936F937F938F939F93AF93BF93BA
S1131260EF93FF9320914E0130914F014091840000
S113127050918500C901032E000CAA0BBB0BDC01A5
S11312809927882760E070E0842B952BA62BB72B39
S11312908093500190935101A0935201B093530154
S11312A0B09B1BC04091840050918500C9010196F8
S11312B0092E000CAA0BBB0BDC019927882760E0E0
S11312C070E0842B952BA62BB72B80935001909321
S11312D05101A0935201B0935301E091FA01F091AE
S11312E0FB01309739F065E070E0809162019091E4
S11312F0630109950E94CA06FF91EF91BF91AF91D6
S11313009F918F917F916F915F914F913F912F9119
S11313100F900FBE0F901F9018951F920F920FB64B
S11313200F9211242F933F934F935F936F937F9367
S11313308F939F93AF93BF93EF93FF9320914E01AD
S113134030914F014091840050918500C901032ED2
S1131350000CAA0BBB0BDC019927882760E070E026
S1131360842B952BA62BB72B80935001909351017E
S1131370A0935201B0935301B09B1BC040918400D1
S113138050918500C9010196092E000CAA0BBB0BD4
S1131390DC019927882760E070E0842B952BA62B2D
S11313A0B72B8093500190935101A0935201B093B5
S11313B05301E091FC01F091FD01309739F066E0B2
S11313C070E0809164019091650109950E94CA06BC
S11313D0FF91EF91BF91AF919F918F917F916F9109
S11313E05F914F913F912F910F900FBE0F901F90DF
S11313F018951F920F920FB60F9211242F933F93BB
S11314004F935F936F937F938F939F93AF93BF9308
S1131410EF93FF9320914E0130914F01409184004E
S113142050918500C901032E000CAA0BBB0BDC01F3
S11314309927882760E070E0842B952BA62BB72B87
S11314408093500190935101A0935201B0935301A2
S1131450B09B1BC04091840050918500C901019646
S1131460092E000CAA0BBB0BDC019927882760E02E
S113147070E0842B952BA62BB72B8093500190936F
S11314805101A0935201B0935301E091FE01F091F8
S1131490FF01309739F067E070E080916601909128
S11314A0670109950E94CA06FF91EF91BF91AF9120
S11314B09F918F917F916F915F914F913F912F9168
S11314C00F900FBE0F901F9018951F920F920FB69A
S11314D00F9211242F933F934F935F936F937F93B6
S11314E08F939F93AF93BF93EF93FF9320914E01FC
S11314F030914F014091840050918500C901032E21
S1131500000CAA0BBB0BDC019927882760E070E074
S1131510842B952BA62BB72B8093500190935101CC
S1131520A0935201B0935301B09B1BC0409184001F
S113153050918500C9010196092E000CAA0BBB0B22
S1131540DC019927882760E070E0842B952BA62B7B
S1131550B72B8093500190935101A0935201B09303
S11315605301E0910002F0910102309739F068E0F4
S113157070E0809168019091690109950E94CA0602
S1131580FF91EF91BF91AF919F918F917F916F9157
S11315905F914F913F912F910F900FBE0F901F902D
S11315A018951F920F920FB60F9211242F933F9309
S11315B04F935F936F937F938F939F93AF93BF9357
S11315C0EF93FF9320914E0130914F01409184009D
S11315D050918500C901032E000CAA0BBB0BDC0142
S11315E09927882760E070E0842B952BA62BB72BD6
S11315F08093500190935101A0935201B0935301F1
S1131600B09B1BC04091840050918500C901019694
S1131610092E000CAA0BBB0BDC019927882760E07C
S113162070E0842B952BA62BB72B809350019093BD
S11316305101A0935201B0935301E0910202F09141
S11316400302309739F069E070E080916A0190916B
S11316506B0109950E94CA06FF91EF91BF91AF916A
S11316609F918F917F916F915F914F913F912F91B6
S11316700F900FBE0F901F9018951F920F920FB6E8
S11316800F9211242F933F934F935F936F937F9304
S11316908F939F93AF93BF93EF93FF9320914E014A
S11316A030914F014091840050918500C901032E6F
S11316B0000CAA0BBB0BDC019927882760E070E0C3
S11316C0842B952BA62BB72B80935001909351011B
S11316D0A0935201B0935301B09B1BC0409184006E
S11316E050918500C9010196092E000CAA0BBB0B71
S11316F0DC019927882760E070E0842B952BA62BCA
S1131700B72B8093500190935101A0935201B09351
S11317105301E0910402F0910502309739F06AE038
S113172070E080916C0190916D0109950E94CA0648
S1131730FF91EF91BF91AF919F918F917F916F91A5
S11317405F914F913F912F910F900FBE0F901F907B
S113175018951F920F920FB60F9211242F933F9357
S11317604F935F936F937F938F939F93AF93BF93A5
S1131770EF93FF9320914E0130914F0140918400EB
S113178050918500C901032E000CAA0BBB0BDC0190
S11317909927882760E070E0842B952BA62BB72B24
S11317A08093500190935101A0935201B09353013F
S11317B0B09B1BC04091840050918500C9010196E3
S11317C0092E000CAA0BBB0BDC019927882760E0CB
S11317D070E0842B952BA62BB72B8093500190930C
S11317E05101A0935201B0935301E0910602F0918C
S11317F00702309739F06BE070E080916E019091B0
S11318006F0109950E94CA06FF91EF91BF91AF91B4
S11318109F918F917F916F915F914F913F912F9104
S11318200F900FBE0F901F9018951F920F920FB636
S11318300F9211242F933F934F935F936F937F9352
S11318408F939F93AF93BF93EF93FF9320914E0198
S113185030914F014091840050918500C901032EBD
S1131860000CAA0BBB0BDC019927882760E070E011
S1131870842B952BA62BB72B809350019093510169
S1131880A0935201B0935301B09B1BC040918400BC
S113189050918500C9010196092E000CAA0BBB0BBF
S11318A0DC019927882760E070E0842B952BA62B18
S11318B0B72B8093500190935101A0935201B093A0
S11318C05301E0910802F0910902309739F06CE07D
S11318D070E0809170019091710109950E94CA068F
S11318E0FF91EF91BF91AF919F918F917F916F91F4
S11318F05F914F913F912F910F900FBE0F901F90CA
S113190018951F920F920FB60F9211242F933F93A5
S11319104F935F936F937F938F939F93AF93BF93F3
S1131920EF93FF9320914E0130914F014091840039
S113193050918500C901032E000CAA0BBB0BDC01DE
S11319409927882760E070E0842B952BA62BB72B72
S11319508093500190935101A0935201B09353018D
S1131960B09B1BC04091840050918500C901019631
S1131970092E000CAA0BBB0BDC019927882760E019
S113198070E0842B952BA62BB72B8093500190935A
S11319905101A0935201B0935301E0910A02F091D6
S11319A00B02309739F06DE070E0809172019091F4
S11319B0730109950E94CA06FF91EF91BF91AF91FF
S11319C09F918F917F916F915F914F913F912F9153
S11319D00F900FBE0F901F9018951F920F920FB685
S11319E00F9211242F933F934F935F936F937F93A1
S11319F08F939F93AF93BF93EF93FF9320914E01E7
S1131A0030914F014091840050918500C901032E0B
S1131A10000CAA0BBB0BDC019927882760E070E05F
S1131A20842B952BA62BB72B8093500190935101B7
S1131A30A0935201B0935301B09B1BC0409184000A
S1131A4050918500C9010196092E000CAA0BBB0B0D
S1131A50DC019927882760E070E0842B952BA62B66
S1131A60B72B8093500190935101A0935201B093EE
S1131A705301E0910C02F0910D02309739F06EE0C1
S1131A8070E0809174019091750109950E94CA06D5
S1131A90FF91EF91BF91AF919F918F917F916F9142
S1131AA05F914F913F912F910F900FBE0F901F9018
S1131AB018951F920F920FB60F9211242F933F93F4
S1131AC04F935F936F937F938F939F93AF93BF9342
S1131AD0EF93FF9320914E0130914F014091840088
S1131AE050918500C901032E000CAA0BBB0BDC012D
S1131AF09927882760E070E0842B952BA62BB72BC1
S1131B008093500190935101A0935201B0935301DB
S1131B10B09B1BC04091840050918500C90101967F
S1131B20092E000CAA0BBB0BDC019927882760E067
S1131B3070E0842B952BA62BB72B809350019093A8
S1131B405101A0935201B0935301E0910E02F09120
S1131B500F02309739F06FE070E080917601909138
S1131B60770109950E94CA06FF91EF91BF91AF9149
S1131B709F918F917F916F915F914F913F912F91A1
S1131B800F900FBE0F901F9018951F920F920FB6D3
S1131B900F9211242F933F934F935F936F937F93EF
S1131BA08F939F93AF93BF93EF93FF9320914E0135
S1131BB030914F014091840050918500C901032E5A
S1131BC0000CAA0BBB0BDC019927882760E070E0AE
S1131BD0842B952BA62BB72B809350019093510106
S1131BE0A0935201B0935301B09B1BC04091840059
S1131BF050918500C9010196092E000CAA0BBB0B5C
S1131C00DC019927882760E070E0842B952BA62BB4
S1131C10B72B8093500190935101A0935201B0933C
S1131C205301E0911002F0911102309739F060E114
S1131C3070E0809178019091790109950E94CA061B
S1131C40FF91EF91BF91AF919F918F917F916F9190
S1131C505F914F913F912F910F900FBE0F901F9066
S1131C6018951F920F920FB60F9211242F933F9342
S1131C704F935F936F937F938F939F93AF93BF9390
S1131C80EF93FF9320914E0130914F0140918400D6
S1131C9050918500C901032E000CAA0BBB0BDC017B
S1131CA09927882760E070E0842B952BA62BB72B0F
S1131CB08093500190935101A0935201B09353012A
S1131CC0B09B1BC04091840050918500C9010196CE
S1131CD0092E000CAA0BBB0BDC019927882760E0B6
S1131CE070E0842B952BA62BB72B809350019093F7
S1131CF05101A0935201B0935301E0911202F0916B
S1131D001302309739F061E170E080917A0190918B
S1131D107B0109950E94CA06FF91EF91BF91AF9193
S1131D209F918F917F916F915F914F913F912F91EF
S1131D300F900FBE0F901F901895EF92FF920F9384
S1131D401F93CF93DF937B01EB01A881B981109797
S1131D5061F1FC01068117812085318516964D912C
S1131D605D916D917C911997041715072607370724
S1131D7014F41BC0DF01ED91FC911197309749F0E9
S1131D804681578160857185041715072607370733
S1131D908CF7EC01F983E883109721F4F701918320
S1131DA0808307C08D939C9304C0EC01B983A883FE
S1131DB0F5CFDF91CF911F910F91FF90EF90089590
S1131DC0EF92FF920F931F93CF93DF937B01EB016D
S1131DD0A881B981109761F1FC01028113812481EA
S1131DE0358112964D915D916D917C9115970417F3
S1131DF015072607370714F41BC0DF01ED91FC918A
S1131E001197309749F04281538164817581041799
S1131E101507260737078CF7EC01F983E883109739
S1131E2021F4F7019183808307C08D939C9304C0B0
S1131E30EC01B983A883F5CFDF91CF911F910F9166
S1131E40FF90EF900895DC01ED91FC91119730978C
S1131E5059F48FEF8093EC008093ED008093EE00B3
S1131E6081E083BF8895FDCF208131812D933C9300
S1131E70CF0108951F920F920FB60F9211242F9342
S1131E803F934F935F936F937F938F939F93EF93BE
S1131E90FF9380914E0190914F01019690934F01D1
S1131EA080934E01E0915401F0915501309701F176
S1131EB0428153816481758186179707C9F4CA01E9
S1131EC02091840030918500421B530B4130510511
S1131ED029F4809184009091850001969093890063
S1131EE080938800EFE6F0E080818260808305C003
S1131EF0EFE6F0E080818D7F8083FF91EF919F91E9
S1131F008F917F916F915F914F913F912F910F909E
S1131F100FBE0F901F9018951F920F920FB60F923D
S1131F201124CF92DF92EF92FF922F933F934F931E
S1131F305F936F937F938F939F93AF93BF93EF932D
S1131F40FF93C0904E01D0904F01209184003091B6
S1131F508500B0990FC00D2C000CEE08FF08D601C7
S1131F60992788276901E12CF12CC82AD92AEA2A61
S1131F70FB2A15C020918400309185008FEFC81A88
S1131F80D80A0D2C000CEE08FF08D60199278827E3
S1131F906901E12CF12CC82AD92AEA2AFB2AE0910A
S1131FA05401F0915501309709F442C08281938124
S1131FB0A481B5818C199D09AE09BF0918161906AB
S1131FC01A061B06ECF184E591E00E94230F66E5F6
S1131FD071E00E949D0EE0915401F09155013097FB
S1131FE039F182819381A481B5818C199D09AE094F
S1131FF0BF09181619061A061B062CF721C09C01E6
S11320004091840050918500841B950B019731F415
S113201020918400309185002F5F3F4F30938900D9
S113202020938800EFE6F0E080818260808305C021
S1132030EFE6F0E080818D7F80830E94CA060CC0A9
S113204082819381A481B58120914E0130914F0109
S11320502A173B0769F7D3CFFF91EF91BF91AF9157
S11320609F918F917F916F915F914F913F912F91AC
S1132070FF90EF90DF90CF900F900FBE0F901F90C6
S113208018953F924F925F926F927F928F929F9298
S1132090AF92BF92CF92DF92EF92FF920F931F9372
S11320A0CF93DF932B013C0149015A018FB780780C
S11320B0382EF89488E491E00E94230FEC011B87EA
S11320C00A87FD86EC86DF86CE86332061F0E091B8
S11320D04201F09143010280F381E02D82819381DA
S11320E0A481B58108C08091500190915101A091C3
S11320F05201B0915301480E591E6A1E7B1E4A823A
S11321005B826C827D82181419041A041B0444F047
S11321100F2E88248A94982CA82CFFE7BF2EF02D2C
S1132120840C951CA61CB71C8E829F82A886B98637
S113213080914E0190914F0140918400509185000F
S1132140B0990EC0092E000CAA0BBB0BDC01992719
S1132150882760E070E0842B952BA62BB72B13C047
S113216020918400309185000196092E000CAA0B61
S1132170BB0BDC0199278827A90160E070E0842B60
S1132180952BA62BB72B481A590A6A0A7B0A1414F2
S1132190150416041704ACF564E571E0CE010E9441
S11321A0E00EE0915401F0915501309721F18281C4
S11321B09381A481B58120914E0130914F012A175A
S11321C03B07C9F49C014091840050918500841B15
S11321D0950B019731F420918400309185002F5F95
S11321E03F4F3093890020938800EFE6F0E0808130
S11321F08260808341C0EFE6F0E080818D7F808340
S11322003BC066E571E0CE010E949D0E3320B9F11A
S11322108091460190914701009781F1E09144013A
S1132220F0914501209156013091570102811381AB
S1132230D90116964D915D916D917C911997D801B4
S113224016960D911D912D913C911997401B510BA0
S1132250620B730B9AF4DC012D913C91119730932E
S1132260470120934601ED93FC939093450180939D
S113227044010E94AA0602C0332009F07894CE01DA
S1132280DF91CF911F910F91FF90EF90DF90CF904E
S1132290BF90AF909F908F907F906F905F904F9082
S11322A03F900895CF92DF92EF92FF920F931F9386
S11322B0CF93DF93EC017B016A011FB71078F89488
S11322C0A881B981109761F11496ED91FC9115974D
S11322D0309741F0A081B1811496ED91FC9115974E
S11322E03097C1F720914201309143012A173B07EF
S11322F021F0112309F43DC007C0112309F43CC0A7
S113230078948FEF9FEF52C08A819B810097D1F11F
S1132310FC011582148236C0789480E090E046C0B7
S1132320809142019091430199838883112329F07C
S11323308A819B81019709F07894B601CE01F70157
S11323400995F82E092F8FB7F894198218828A817B
S11323509B818230910538F01B821A82FC01158220
S113236014820E94AA06112351F078948F2D902F85
S11323701DC08FEF9FEF1AC08FEF9FEF17C08F2DF7
S1132380902F14C03B832A83F901D583C483CD01E4
S11323900E94AA06E0914201F09143018281938157
S11323A0892B09F4B9CFF983E883C2CFDF91CF91A8
S11323B01F910F91FF90EF90DF90CF9008950091BF
S11323C042011091430186E591E00E94230FEC0144
S11323D0D80113969C938E93129778944E855F85BB
S11323E06C857D858A859B850E9452118FB7F894F0
S11323F0809148019091490199838883D093490140
S1132400C0934801E0914401F0914501008111819C
S1132410E8012A813B81A0915601B09157011097A0
S1132420C1F02115310559F216968D919D910D90AB
S1132430BC91A02DE9014E815F8168857985841B5B
S1132440950BA60BB70B181619061A061B060CF0EB
S1132450B6CF1093450100934401809146019091B9
S1132460470191838083F0934701E0934601A09153
S11324704401B09145011496ED91FC911597309764
S113248041F0A081B1811496ED91FC91159730979C
S1132490C1F7CD010E94AA0692CF4231B8F42FB7FA
S11324A0F89450E0440F551FFA01E85AFE4F918307
S11324B08083FA01E051FE4F7183608341E050E074
S11324C0FC015383428322230CF4789408958C01F5
S11324D07B016A018FB7F8940E943F067894E11457
S11324E0F10441F020E030E0A90160E070E0CB01AC
S11324F00E9441108FB7F8940E94CA06789481E034
S113250083BF8895FDCF97FB072E16F4009407D060
S113251077FD09D00E94C31207FC05D03EF49095C4
S113252081959F4F0895709561957F4F0895052E6D
S113253097FB1EF400940E94AE1257FD07D00E9430
S1132540D71207FC03D04EF40C94AE12509540956C
S1132550309521953F4F4F4F5F4F0895909580954B
S1132560709561957F4F8F4F9F4F0895EE0FFF1F1A
S11325700590F491E02D09940E94F912B7FF089593
S1132580821B930B0895AA1BBB1B51E107C0AA1F12
S1132590BB1FA617B70710F0A61BB70B881F991F00
S11325A05A95A9F780959095BC01CD010895A1E2B3
S11325B01A2EAA1BBB1BFD010DC0AA1FBB1FEE1FB9
S11325C0FF1FA217B307E407F50720F0A21BB30B04
S11325D0E40BF50B661F771F881F991F1A9469F780
S11325E060957095809590959B01AC01BD01CF01DC
S11325F00895A29FB001B39FC001A39F700D811DD8
S11326001124911DB29F700D811D1124911D0895F7
S1132610DC012D923D924D925D926D927D928D9250
S11326209D92AD92BD92CD92DD92ED92FD920D936D
S11326301D93CD93DD93FF91EF918DB78D938EB75D
S11326408D938FB78D93ED93FD93882799270994E4
S1132650DC01CB0181309105811D2D903D904D9081
S11326605D906D907D908D909D90AD90BD90CD903E
S1132670DD90ED90FD900D911D91CD91DD91ED9149
S1132680FD910D90F894FEBF0FBEEDBFED91FD914D
S10926900994F894FFCF49
S1132696000000004A0136012A010E010000000074
S11326A6000036012A0100000000000000000000BE
S11326B600000000000000000000000000004A01C5
S11326C6060000000000000000004A0104000000AB
S10D26D60000140214027C0131021A
S9030000FC
