:100000000C9438000C941A060C9486060C94F20694
:100010000C945E070C94CA070C9455000C94A10E26
:100020000C9455000C944F0E0C9436080C94A208B6
:100030000C940E090C947A090C94E6090C94520A5B
:100040000C94BE0A0C942A0B0C94960B0C94020C84
:100050000C946E0C0C94DA0C0C94460DA8008A00DB
:100060008D0090009300960099009C009F00A200D4
:1000700011241FBECFEFD4E0DEBFCDBF11E0A0E062
:10008000B1E0E0ECF4E202C005900D92A830B107B7
:10009000D9F724E0A8E0B1E001C01D92AB35B2076A
:1000A000E1F70E9467040C945E120C940000E1E6F4
:1000B000F0E080E88083108287EB8093E50087E0A2
:1000C0008093E6008FE08093E70080EC8093E4006B
:1000D000089585B1806D85B98EB18C608EB98DB370
:1000E000806C8DBBECE6F0E08081806D8083EBE678
:1000F000F0E080818C60808308950E9457000E9408
:10010000690008958A30910500F5FC01E25DFF4F1A
:100110000C94CB1180E890E2089581E19EE108956E
:1001200081E19BE1089580E59BE0089581E49BE1F6
:10013000089581E49FE1089581E191E0089581E5CA
:100140009FE1089581E59BE0089580E090E00895A7
:1001500081E595E10895EF92FF921F93CF93DF938E
:1001600000D0CDB7DEB71A8219826630710508F06B
:10017000FEC190ED980F9A3028F08AE090E09A83C3
:10018000898304C090E0C0979A83898361157105C3
:1001900009F04EC00F2EFCEEEF2EF12CF02DF701E2
:1001A000108189819A810E948200107F8F70812B3B
:1001B000F70180830F2EF1EFEF2EF12CF02DF701D8
:1001C000108189819A810E948200807F992795956C
:1001D0008795959587959595879595958795107FA2
:1001E000812BF70180830F2EF6EFEF2EF12CF02DEF
:1001F000F701108189819A810E94820088279F706F
:10020000107F192BF70110830F2EFBEFEF2EF12C2F
:10021000F02DF701108189819A810E948200107F60
:100220009595959595959595912BF70190839FC1FF
:100230006130710509F050C00F2EFCEEEF2EF12C4D
:10024000F02DF701108189819A810E9482001F7030
:1002500082959295907F9827807F9827812BF70130
:1002600080830F2EF1EFEF2EF12CF02DF70110818E
:1002700089819A810E9482001F70807F812BF70103
:1002800080830F2EF6EFEF2EF12CF02DF701108169
:1002900089819A810E94820088279F709595879511
:1002A0009595879595958795959587951F70812B41
:1002B000F70180830F2EFBEFEF2EF12CF02DF701CD
:1002C000108189819A810E9482008827907F1F7007
:1002D000192BF70110834BC16230710509F04EC034
:1002E0000F2EFDEEEF2EF12CF02DF70110818981FC
:1002F0009A810E948200107F8F70812BF70180838A
:100300000F2EF2EFEF2EF12CF02DF70110818981E5
:100310009A810E948200807F99279595879595956F
:1003200087959595879595958795107F812BF701F2
:1003300080830F2EF7EFEF2EF12CF02DF7011081B7
:1003400089819A810E94820088279F70107F192BD3
:10035000F70110830F2EFCEFEF2EF12CF02DF7019B
:10036000108189819A810E948200107F95959595D0
:1003700095959595912BF7019083F9C063307105A0
:1003800009F050C00F2EFDEEEF2EF12CF02DF701ED
:10039000108189819A810E9482001F7082959295B6
:1003A000907F9827807F9827812BF70180830F2EDD
:1003B000F2EFEF2EF12CF02DF701108189819A8157
:1003C0000E9482001F70807F812BF70180830F2E97
:1003D000F7EFEF2EF12CF02DF701108189819A8132
:1003E0000E94820088279F7095958795959587959F
:1003F00095958795959587951F70812BF70180833B
:100400000F2EFCEFEF2EF12CF02DF70110818981DA
:100410009A810E9482008827907F1F70192BF70114
:100420001083A5C06430710509F04EC00F2EFEEE9A
:10043000EF2EF12CF02DF701108189819A810E9415
:100440008200107F8F70812BF70180830F2EF3EFD6
:10045000EF2EF12CF02DF701108189819A810E94F5
:100460008200807F99279595879595958795959595
:10047000879595958795107F812BF70180830F2EA7
:10048000F8EFEF2EF12CF02DF701108189819A8180
:100490000E94820088279F70107F192BF70110831C
:1004A0000F2EFDEFEF2EF12CF02DF7011081898139
:1004B0009A810E948200107F9595959595959595C6
:1004C000912BF701908353C06530710509F04FC03F
:1004D0000F2EFEEEEF2EF12CF02DF7011081898109
:1004E0009A810E9482001F7082959295907F982732
:1004F000807F9827812BF70180830F2EF3EFEF2E5B
:10050000F12CF02DF701108189819A810E948200DF
:100510001F70807F812BF70180830F2EF8EFEF2E65
:10052000F12CF02DF701108189819A810E948200BF
:1005300088279F709595879595958795959587952B
:10054000959587951F70812BF70180830F2EFDEF06
:10055000EF2EF12CF02DF701108189819A810E94F4
:1005600082008827907F1F70192BF70110830F904E
:100570000F90DF91CF911F91FF90EF9008958F9290
:100580009F92AF92BF92CF92DF92EF92FF92CF9362
:10059000DF934B015C01EA0124E630E040E050E0EB
:1005A0000E94AC110F2EFAE0CF2ED12CE12CF12CB1
:1005B000F02DA70196010E94AC11BE0180E3820FCD
:1005C0000E94AB002196C501B401A70196010E94CB
:1005D000AC11862FBE01805D0E94AB00DF91CF91F0
:1005E000FF90EF90DF90CF90BF90AF909F908F9053
:1005F00008951F9B0BC01E9B0CC01C9B0DC0629BD3
:100600000EC0639B0FC080E090E0089587E090E00B
:10061000089586E090E0089584E090E0089582E0F7
:1006200090E0089583E090E00895CF92DF92EF92FA
:10063000FF920F931F93CF93DF93EC010E94F90277
:100640008730910509F054C088859985009719F580
:10065000CC84DD8481E0C81AD108DD86CC868E0189
:100660000C5F1F4F0F2EF0E5EF2EF5E0FF2EF02D63
:1006700020E030E0A90160E070E0CB010E94560F5D
:10068000488559856C857D85072E000C880B990B54
:100690000E94BF0224C0049711F5CE84DF8481E05C
:1006A000C81AD108DF86CE868E010A5F1F4F0F2E33
:1006B000F0E5EF2EF5E0FF2EF02D20E030E0A9016F
:1006C00060E070E0CB010E94560F488559856E8529
:1006D0007F85072E000C880B990B0E94BF0242E019
:1006E00050E067E070E080E090E00E94BF0280C0D0
:1006F0008230910559F41986188642E050E062E094
:1007000070E080E090E00E94BF0272C083309105EB
:1007100069F484E090E09987888742E050E063E0E4
:1007200070E080E090E00E94BF0262C086309105D8
:1007300009F054C088859985009719F5CC84DD842B
:100740008FEFC81AD80ADD86CC868E010C5F1F4F4A
:100750000F2EF0E5EF2EF5E0FF2EF02D20E030E03B
:10076000A90160E070E0CB010E94560F48855985D1
:100770006C857D85072E000C880B990B0E94BF02AB
:1007800024C0049711F5CE84DF848FEFC81AD80AED
:10079000DF86CE868E010A5F1F4F0F2EF0E5EF2E0B
:1007A000F5E0FF2EF02D20E030E0A90160E070E0E0
:1007B000CB010E94560F488559856E857F85072E8F
:1007C000000C880B990B0E94BF0242E050E066E0EB
:1007D00070E080E090E00E94BF020AC0049741F000
:1007E00042E050E064E070E080E090E00E94BF02F0
:1007F000DF91CF911F910F91FF90EF90DF90CF90FD
:100800000895CF92DF92EF92FF920F931F938C0186
:10081000065F1F4FC12CD12C0F2EF5E1EF2EF3E018
:10082000FF2EF02D20E030E0A90160E070E0CB0168
:100830000E94560F1F910F91FF90EF90DF90CF9085
:100840000895CF92DF92EF92FF920F931F93CF9371
:10085000DF9300D0CDB7DEB79A83898341E061E0B2
:1008600074E0CE0101960E94621142E061E074E002
:10087000CE0101960E94621109811A810A5F1F4F01
:10088000C12CD12C0F2EF7E0EF2EF5E0FF2EF02D2E
:1008900020E030E0A90160E070E0CB010E94560F3B
:1008A00009811A81085F1F4F20E030E0A90160E054
:1008B00070E0CB010E94560F0F900F90DF91CF9107
:1008C0001F910F91FF90EF90DF90CF9008950F93BD
:1008D0001F93CF93DF93CDB7DEB7EC970FB6F894A5
:1008E000DEBF0FBECDBF0E947D001A8219821C821E
:1008F0001B821E821D8218861F82CE0101969A8756
:10090000898724E030E03C872B871E861D8621E006
:1009100030E0388B2F871A8A198A1C8A1B8A9E8B93
:100920008D8B26E030E0388F2F8B1A8E198E1C8E1F
:100930001B8E1E8E1D8E18A21F8EAE014B5F5F4F49
:100940005AA349A39E012F5E3F4F3CA32BA31EA297
:100950001DA218A61FA21AA619A61CA61BA61EA693
:100960001DA618AA1FA61AAA19AA1CAA1BAA9EABE2
:100970008DAB58AF4FAB3AAF29AF4C969CAF8BAF16
:1009800000E010E0B801012E000C880B990B42E04A
:1009900050E00E94BF020F5F1F4F083E83E0180720
:1009A00089F740E050E061E274E0CE01C1960E9418
:1009B0007C11EC960FB6F894DEBF0FBECDBFDF9171
:1009C000CF911F910F9108958EB190E0062E02C035
:1009D000959587950A94E2F780FF0CC02EB181E0CF
:1009E00090E002C0880F991F6A95E2F780958223F4
:1009F0008EB90AC02EB181E090E002C0880F991F25
:100A00006A95E2F7822B8EB980E090E00895CF924C
:100A1000DF92EF92FF920F931F93CF93DF93EC013E
:100A20008A859B85892B41F04E815F8164EE74E05D
:100A3000CE0104960E9467106A857B8584EF91E061
:100A40000E9498112DE730E0DB010E94D1118B014B
:100A50009C01992324F40D5F1F4F2F4F3F4FC90175
:100A6000B80195958795779567959595879577952D
:100A70006795C12CD12C0F2EF7E0EF2EF5E0FF2E5D
:100A8000F02D8E0120E030E0A9010E94560FDF9189
:100A9000CF911F910F91FF90EF90DF90CF9008952D
:100AA000FC01738762870895CF93DF9300D000D055
:100AB000CDB7DEB78BEF91E02BED32E0FC01709704
:100AC00091838083409682179307C1F71092CC02DE
:100AD0001092CB02E6E3F1E083E591E0918380831D
:100AE00080E791E0968F858FADE8B1E0B3AFA2AF1C
:100AF0001D921C92FA83E983E7E3F3E0FC83EB8326
:100B000089819A8106960E941D128B819C81E981C0
:100B1000FA81978B868B918F808F84EF90E1948FF1
:100B2000838F158214827D96FA83E983EB81FC81A1
:100B3000E05AFF4FFC83EB8389819A818A5A914066
:100B4000F9F6EEECF1E01182108215821482138224
:100B50001282E1E6F0E080E8808310821092850046
:100B60001092840084E08093810081E080936F0084
:100B70000F900F900F900F90DF91CF910895CF932A
:100B8000DF9300D0CDB7DEB79A83898380910001CF
:100B90009091010106960E941D12892B59F48981BA
:100BA0009A81909301018093000161E070E00696C4
:100BB0000E943D120F900F90DF91CF9108950F93F7
:100BC0001F93CF93DF93E0911001F09111013097C3
:100BD00061F18091040190910501009731F1C0917C
:100BE0000201D0910301AA81BB81109779F046815F
:100BF00057816085718516960D911D912D913C91BF
:100C00001997401B510B620B730B7AF4FC01208186
:100C100031813093050120930401D183C0839093E7
:100C20000301809302010E94BF05DF91CF911F91C4
:100C30000F9108951F920F920FB60F9211242F93C8
:100C40003F934F935F936F937F938F939F93AF9354
:100C5000BF93EF93FF9320910801309109014091D8
:100C6000840050918500C901032E000CAA0BBB0B18
:100C7000DC019927882760E070E0842B952BA62B58
:100C8000B72B80930A0190930B01A0930C01B093B2
:100C90000D01B09B1BC04091840050918500C9019B
:100CA0000196092E000CAA0BBB0BDC0199278827A3
:100CB00060E070E0842B952BA62BB72B80930A0164
:100CC00090930B01A0930C01B0930D01E091AA0148
:100CD000F091AB01309739F060E070E08091120143
:100CE0009091130109950E94DF05FF91EF91BF914B
:100CF000AF919F918F917F916F915F914F913F91B4
:100D00002F910F900FBE0F901F9018951F920F926A
:100D10000FB60F9211242F933F934F935F936F93CE
:100D20007F938F939F93AF93BF93EF93FF93209104
:100D30000801309109014091840050918500C9015A
:100D4000032E000CAA0BBB0BDC019927882760E05F
:100D500070E0842B952BA62BB72B80930A019093E0
:100D60000B01A0930C01B0930D01B09B1BC04091EF
:100D7000840050918500C9010196092E000CAA0B30
:100D8000BB0BDC019927882760E070E0842B952B52
:100D9000A62BB72B80930A0190930B01A0930C0113
:100DA000B0930D01E091AC01F091AD01309739F0B5
:100DB00061E070E0809114019091150109950E9405
:100DC000DF05FF91EF91BF91AF919F918F917F913F
:100DD0006F915F914F913F912F910F900FBE0F90A8
:100DE0001F9018951F920F920FB60F9211242F93F8
:100DF0003F934F935F936F937F938F939F93AF93A3
:100E0000BF93EF93FF932091080130910901409126
:100E1000840050918500C901032E000CAA0BBB0B66
:100E2000DC019927882760E070E0842B952BA62BA6
:100E3000B72B80930A0190930B01A0930C01B09300
:100E40000D01B09B1BC04091840050918500C901E9
:100E50000196092E000CAA0BBB0BDC0199278827F1
:100E600060E070E0842B952BA62BB72B80930A01B2
:100E700090930B01A0930C01B0930D01E091AE0192
:100E8000F091AF01309739F062E070E08091160187
:100E90009091170109950E94DF05FF91EF91BF9195
:100EA000AF919F918F917F916F915F914F913F9102
:100EB0002F910F900FBE0F901F9018951F920F92B9
:100EC0000FB60F9211242F933F934F935F936F931D
:100ED0007F938F939F93AF93BF93EF93FF93209153
:100EE0000801309109014091840050918500C901A9
:100EF000032E000CAA0BBB0BDC019927882760E0AE
:100F000070E0842B952BA62BB72B80930A0190932E
:100F10000B01A0930C01B0930D01B09B1BC040913D
:100F2000840050918500C9010196092E000CAA0B7E
:100F3000BB0BDC019927882760E070E0842B952BA0
:100F4000A62BB72B80930A0190930B01A0930C0161
:100F5000B0930D01E091B001F091B101309739F0FB
:100F600063E070E0809118019091190109950E9449
:100F7000DF05FF91EF91BF91AF919F918F917F918D
:100F80006F915F914F913F912F910F900FBE0F90F6
:100F90001F9018951F920F920FB60F9211242F9346
:100FA0003F934F935F936F937F938F939F93AF93F1
:100FB000BF93EF93FF932091080130910901409175
:100FC000840050918500C901032E000CAA0BBB0BB5
:100FD000DC019927882760E070E0842B952BA62BF5
:100FE000B72B80930A0190930B01A0930C01B0934F
:100FF0000D01B09B1BC04091840050918500C90138
:101000000196092E000CAA0BBB0BDC01992788273F
:1010100060E070E0842B952BA62BB72B80930A0100
:1010200090930B01A0930C01B0930D01E091B201DC
:10103000F091B301309739F064E070E080911A01CB
:1010400090911B0109950E94DF05FF91EF91BF91DF
:10105000AF919F918F917F916F915F914F913F9150
:101060002F910F900FBE0F901F9018951F920F9207
:101070000FB60F9211242F933F934F935F936F936B
:101080007F938F939F93AF93BF93EF93FF932091A1
:101090000801309109014091840050918500C901F7
:1010A000032E000CAA0BBB0BDC019927882760E0FC
:1010B00070E0842B952BA62BB72B80930A0190937D
:1010C0000B01A0930C01B0930D01B09B1BC040918C
:1010D000840050918500C9010196092E000CAA0BCD
:1010E000BB0BDC019927882760E070E0842B952BEF
:1010F000A62BB72B80930A0190930B01A0930C01B0
:10110000B0930D01E091B401F091B501309739F041
:1011100065E070E080911C0190911D0109950E948D
:10112000DF05FF91EF91BF91AF919F918F917F91DB
:101130006F915F914F913F912F910F900FBE0F9044
:101140001F9018951F920F920FB60F9211242F9394
:101150003F934F935F936F937F938F939F93AF933F
:10116000BF93EF93FF9320910801309109014091C3
:10117000840050918500C901032E000CAA0BBB0B03
:10118000DC019927882760E070E0842B952BA62B43
:10119000B72B80930A0190930B01A0930C01B0939D
:1011A0000D01B09B1BC04091840050918500C90186
:1011B0000196092E000CAA0BBB0BDC01992788278E
:1011C00060E070E0842B952BA62BB72B80930A014F
:1011D00090930B01A0930C01B0930D01E091B60127
:1011E000F091B701309739F066E070E080911E0110
:1011F00090911F0109950E94DF05FF91EF91BF912A
:10120000AF919F918F917F916F915F914F913F919E
:101210002F910F900FBE0F901F9018951F920F9255
:101220000FB60F9211242F933F934F935F936F93B9
:101230007F938F939F93AF93BF93EF93FF932091EF
:101240000801309109014091840050918500C90145
:10125000032E000CAA0BBB0BDC019927882760E04A
:1012600070E0842B952BA62BB72B80930A019093CB
:101270000B01A0930C01B0930D01B09B1BC04091DA
:10128000840050918500C9010196092E000CAA0B1B
:10129000BB0BDC019927882760E070E0842B952B3D
:1012A000A62BB72B80930A0190930B01A0930C01FE
:1012B000B0930D01E091B801F091B901309739F088
:1012C00067E070E0809120019091210109950E94D2
:1012D000DF05FF91EF91BF91AF919F918F917F912A
:1012E0006F915F914F913F912F910F900FBE0F9093
:1012F0001F9018951F920F920FB60F9211242F93E3
:101300003F934F935F936F937F938F939F93AF938D
:10131000BF93EF93FF932091080130910901409111
:10132000840050918500C901032E000CAA0BBB0B51
:10133000DC019927882760E070E0842B952BA62B91
:10134000B72B80930A0190930B01A0930C01B093EB
:101350000D01B09B1BC04091840050918500C901D4
:101360000196092E000CAA0BBB0BDC0199278827DC
:1013700060E070E0842B952BA62BB72B80930A019D
:1013800090930B01A0930C01B0930D01E091BA0171
:10139000F091BB01309739F068E070E08091220154
:1013A0009091230109950E94DF05FF91EF91BF9174
:1013B000AF919F918F917F916F915F914F913F91ED
:1013C0002F910F900FBE0F901F9018951F920F92A4
:1013D0000FB60F9211242F933F934F935F936F9308
:1013E0007F938F939F93AF93BF93EF93FF9320913E
:1013F0000801309109014091840050918500C90194
:10140000032E000CAA0BBB0BDC019927882760E098
:1014100070E0842B952BA62BB72B80930A01909319
:101420000B01A0930C01B0930D01B09B1BC0409128
:10143000840050918500C9010196092E000CAA0B69
:10144000BB0BDC019927882760E070E0842B952B8B
:10145000A62BB72B80930A0190930B01A0930C014C
:10146000B0930D01E091BC01F091BD01309739F0CE
:1014700069E070E0809124019091250109950E9416
:10148000DF05FF91EF91BF91AF919F918F917F9178
:101490006F915F914F913F912F910F900FBE0F90E1
:1014A0001F9018951F920F920FB60F9211242F9331
:1014B0003F934F935F936F937F938F939F93AF93DC
:1014C000BF93EF93FF932091080130910901409160
:1014D000840050918500C901032E000CAA0BBB0BA0
:1014E000DC019927882760E070E0842B952BA62BE0
:1014F000B72B80930A0190930B01A0930C01B0933A
:101500000D01B09B1BC04091840050918500C90122
:101510000196092E000CAA0BBB0BDC01992788272A
:1015200060E070E0842B952BA62BB72B80930A01EB
:1015300090930B01A0930C01B0930D01E091BE01BB
:10154000F091BF01309739F06AE070E08091260198
:101550009091270109950E94DF05FF91EF91BF91BE
:10156000AF919F918F917F916F915F914F913F913B
:101570002F910F900FBE0F901F9018951F920F92F2
:101580000FB60F9211242F933F934F935F936F9356
:101590007F938F939F93AF93BF93EF93FF9320918C
:1015A0000801309109014091840050918500C901E2
:1015B000032E000CAA0BBB0BDC019927882760E0E7
:1015C00070E0842B952BA62BB72B80930A01909368
:1015D0000B01A0930C01B0930D01B09B1BC0409177
:1015E000840050918500C9010196092E000CAA0BB8
:1015F000BB0BDC019927882760E070E0842B952BDA
:10160000A62BB72B80930A0190930B01A0930C019A
:10161000B0930D01E091C001F091C101309739F014
:101620006BE070E0809128019091290109950E945A
:10163000DF05FF91EF91BF91AF919F918F917F91C6
:101640006F915F914F913F912F910F900FBE0F902F
:101650001F9018951F920F920FB60F9211242F937F
:101660003F934F935F936F937F938F939F93AF932A
:10167000BF93EF93FF9320910801309109014091AE
:10168000840050918500C901032E000CAA0BBB0BEE
:10169000DC019927882760E070E0842B952BA62B2E
:1016A000B72B80930A0190930B01A0930C01B09388
:1016B0000D01B09B1BC04091840050918500C90171
:1016C0000196092E000CAA0BBB0BDC019927882779
:1016D00060E070E0842B952BA62BB72B80930A013A
:1016E00090930B01A0930C01B0930D01E091C20106
:1016F000F091C301309739F06CE070E080912A01DD
:1017000090912B0109950E94DF05FF91EF91BF9108
:10171000AF919F918F917F916F915F914F913F9189
:101720002F910F900FBE0F901F9018951F920F9240
:101730000FB60F9211242F933F934F935F936F93A4
:101740007F938F939F93AF93BF93EF93FF932091DA
:101750000801309109014091840050918500C90130
:10176000032E000CAA0BBB0BDC019927882760E035
:1017700070E0842B952BA62BB72B80930A019093B6
:101780000B01A0930C01B0930D01B09B1BC04091C5
:10179000840050918500C9010196092E000CAA0B06
:1017A000BB0BDC019927882760E070E0842B952B28
:1017B000A62BB72B80930A0190930B01A0930C01E9
:1017C000B0930D01E091C401F091C501309739F05B
:1017D0006DE070E080912C0190912D0109950E949F
:1017E000DF05FF91EF91BF91AF919F918F917F9115
:1017F0006F915F914F913F912F910F900FBE0F907E
:101800001F9018951F920F920FB60F9211242F93CD
:101810003F934F935F936F937F938F939F93AF9378
:10182000BF93EF93FF9320910801309109014091FC
:10183000840050918500C901032E000CAA0BBB0B3C
:10184000DC019927882760E070E0842B952BA62B7C
:10185000B72B80930A0190930B01A0930C01B093D6
:101860000D01B09B1BC04091840050918500C901BF
:101870000196092E000CAA0BBB0BDC0199278827C7
:1018800060E070E0842B952BA62BB72B80930A0188
:1018900090930B01A0930C01B0930D01E091C60150
:1018A000F091C701309739F06EE070E080912E0121
:1018B00090912F0109950E94DF05FF91EF91BF9153
:1018C000AF919F918F917F916F915F914F913F91D8
:1018D0002F910F900FBE0F901F9018951F920F928F
:1018E0000FB60F9211242F933F934F935F936F93F3
:1018F0007F938F939F93AF93BF93EF93FF93209129
:101900000801309109014091840050918500C9017E
:10191000032E000CAA0BBB0BDC019927882760E083
:1019200070E0842B952BA62BB72B80930A01909304
:101930000B01A0930C01B0930D01B09B1BC0409113
:10194000840050918500C9010196092E000CAA0B54
:10195000BB0BDC019927882760E070E0842B952B76
:10196000A62BB72B80930A0190930B01A0930C0137
:10197000B0930D01E091C801F091C901309739F0A1
:101980006FE070E0809130019091310109950E94E3
:10199000DF05FF91EF91BF91AF919F918F917F9163
:1019A0006F915F914F913F912F910F900FBE0F90CC
:1019B0001F9018951F920F920FB60F9211242F931C
:1019C0003F934F935F936F937F938F939F93AF93C7
:1019D000BF93EF93FF93209108013091090140914B
:1019E000840050918500C901032E000CAA0BBB0B8B
:1019F000DC019927882760E070E0842B952BA62BCB
:101A0000B72B80930A0190930B01A0930C01B09324
:101A10000D01B09B1BC04091840050918500C9010D
:101A20000196092E000CAA0BBB0BDC019927882715
:101A300060E070E0842B952BA62BB72B80930A01D6
:101A400090930B01A0930C01B0930D01E091CA019A
:101A5000F091CB01309739F060E170E08091320174
:101A60009091330109950E94DF05FF91EF91BF919D
:101A7000AF919F918F917F916F915F914F913F9126
:101A80002F910F900FBE0F901F9018951F920F92DD
:101A90000FB60F9211242F933F934F935F936F9341
:101AA0007F938F939F93AF93BF93EF93FF93209177
:101AB0000801309109014091840050918500C901CD
:101AC000032E000CAA0BBB0BDC019927882760E0D2
:101AD00070E0842B952BA62BB72B80930A01909353
:101AE0000B01A0930C01B0930D01B09B1BC0409162
:101AF000840050918500C9010196092E000CAA0BA3
:101B0000BB0BDC019927882760E070E0842B952BC4
:101B1000A62BB72B80930A0190930B01A0930C0185
:101B2000B0930D01E091CC01F091CD01309739F0E7
:101B300061E170E0809134019091350109950E9436
:101B4000DF05FF91EF91BF91AF919F918F917F91B1
:101B50006F915F914F913F912F910F900FBE0F901A
:101B60001F901895EF92FF920F931F93CF93DF93DF
:101B70007B01EB01A881B981109761F1FC0106811D
:101B800017812085318516964D915D916D917C91DF
:101B90001997041715072607370714F41BC0DF0130
:101BA000ED91FC911197309749F0468157816085FE
:101BB000718504171507260737078CF7EC01F983A1
:101BC000E883109721F4F7019183808307C08D93F8
:101BD0009C9304C0EC01B983A883F5CFDF91CF912A
:101BE0001F910F91FF90EF900895EF92FF920F9346
:101BF0001F93CF93DF937B01EB01A881B9811097ED
:101C000061F1FC01028113812481358112964D918D
:101C10005D916D917C91159704171507260737077D
:101C200014F41BC0DF01ED91FC911197309749F03E
:101C30004281538164817581041715072607370790
:101C40008CF7EC01F983E883109721F4F701918375
:101C5000808307C08D939C9304C0EC01B983A88353
:101C6000F5CFDF91CF911F910F91FF90EF900895E5
:101C7000DC01ED91FC911197309759F48FEF80932F
:101C8000EC008093ED008093EE0081E083BF8895A7
:101C9000FDCF208131812D933C93CF0108951F9278
:101CA0000F920FB60F9211242F933F934F935F9390
:101CB0006F937F938F939F93EF93FF93809108018E
:101CC0009091090101969093090180930801E09198
:101CD0000E01F0910F01309701F14281538164812F
:101CE000758186179707C9F4CA0120918400309145
:101CF0008500421B530B4130510529F4809184002B
:101D00009091850001969093890080938800EFE67A
:101D1000F0E080818260808305C0EFE6F0E08081A2
:101D20008D7F8083FF91EF919F918F917F916F9134
:101D30005F914F913F912F910F900FBE0F901F9089
:101D400018951F920F920FB60F921124CF92DF9227
:101D5000EF92FF922F933F934F935F936F937F93F5
:101D60008F939F93AF93BF93EF93FF93C09008011E
:101D7000D09009012091840030918500B0990FC066
:101D80000D2C000CEE08FF08D60199278827690161
:101D9000E12CF12CC82AD92AEA2AFB2A15C0209165
:101DA0008400309185008FEFC81AD80A0D2C000CE2
:101DB000EE08FF08D601992788276901E12CF12C4C
:101DC000C82AD92AEA2AFB2AE0910E01F0910F01D4
:101DD000309709F442C082819381A481B5818C1926
:101DE0009D09AE09BF09181619061A061B06ECF163
:101DF0008EE091E00E94380E60E171E00E94B20D29
:101E0000E0910E01F0910F01309739F182819381B9
:101E1000A481B5818C199D09AE09BF091816190650
:101E20001A061B062CF721C09C014091840050919A
:101E30008500841B950B019731F42091840030912B
:101E400085002F5F3F4F3093890020938800EFE695
:101E5000F0E080818260808305C0EFE6F0E0808161
:101E60008D7F80830E94DF050CC082819381A481D5
:101E7000B58120910801309109012A173B0769F7C4
:101E8000D3CFFF91EF91BF91AF919F918F917F91B0
:101E90006F915F914F913F912F91FF90EF90DF9065
:101EA000CF900F900FBE0F901F9018953F924F92BA
:101EB0005F926F927F928F929F92AF92BF92CF92DA
:101EC000DF92EF92FF920F931F93CF93DF932B013B
:101ED0003C0149015A018FB78078382EF89486E08A
:101EE00091E00E94380EEC011B870A87FD86EC8684
:101EF000DF86CE86332061F0E0910001F091010190
:101F00000280F381E02D82819381A481B58108C094
:101F100080910A0190910B01A0910C01B0910D01EB
:101F2000480E591E6A1E7B1E4A825B826C827D822D
:101F3000181419041A041B0444F00F2E88248A94E0
:101F4000982CA82CFFE7BF2EF02D840C951CA61C06
:101F5000B71C8E829F82A886B986809108019091D5
:101F600009014091840050918500B0990EC0092E5E
:101F7000000CAA0BBB0BDC019927882760E070E0FE
:101F8000842B952BA62BB72B13C020918400309166
:101F900085000196092E000CAA0BBB0BDC019927CA
:101FA0008827A90160E070E0842B952BA62BB72B26
:101FB000481A590A6A0A7B0A1414150416041704ED
:101FC000ACF56EE071E0CE010E94F50DE0910E01DE
:101FD000F0910F01309721F182819381A481B58125
:101FE00020910801309109012A173B07C9F49C018F
:101FF0004091840050918500841B950B019731F42A
:1020000020918400309185002F5F3F4F30938900ED
:1020100020938800EFE6F0E080818260808341C0F9
:10202000EFE6F0E080818D7F80833BC060E171E06E
:10203000CE010E94B20D3320B9F18091040190913C
:102040000501009781F1E0910201F09103012091D7
:1020500010013091110102811381D90116964D9121
:102060005D916D917C911997D80116960D911D91F6
:102070002D913C911997401B510B620B730B9AF4F5
:10208000DC012D913C9111973093050120930401BF
:10209000ED93FC9390930301809302010E94BF058E
:1020A00002C0332009F07894CE01DF91CF911F91C7
:1020B0000F91FF90EF90DF90CF90BF90AF909F90E7
:1020C0008F907F906F905F904F903F900895CF9248
:1020D000DF92EF92FF920F931F93CF93DF93EC0168
:1020E0007B016A011FB71078F894A881B981109715
:1020F00061F11496ED91FC911597309741F0A08114
:10210000B1811496ED91FC9115973097C1F720910C
:102110000001309101012A173B0721F0112309F436
:102120003DC007C0112309F43CC078948FEF9FEFA6
:1021300052C08A819B810097D1F1FC0115821482E3
:1021400036C0789480E090E046C080910001909184
:10215000010199838883112329F08A819B8101974A
:1021600009F07894B601CE01F7010995F82E092FF0
:102170008FB7F894198218828A819B8182309105E9
:1021800038F01B821A82FC01158214820E94BF055E
:10219000112351F078948F2D902F1DC08FEF9FEF5A
:1021A0001AC08FEF9FEF17C08F2D902F14C03B8365
:1021B0002A83F901D583C483CD010E94BF05E09134
:1021C0000001F091010182819381892B09F4B9CF3B
:1021D000F983E883C2CFDF91CF911F910F91FF90D8
:1021E000EF90DF90CF9008950091000110910101D0
:1021F00080E191E00E94380EEC01D80113969C9387
:102200008E93129778944E855F856C857D858A853F
:102210009B850E9467108FB7F8948091060190917A
:10222000070199838883D0930701C0930601E09149
:102230000201F091030100811181E8012A813B81B3
:10224000A0911001B09111011097C1F02115310535
:1022500059F216968D919D910D90BC91A02DE9019A
:102260004E815F8168857985841B950BA60BB70B22
:10227000181619061A061B060CF0B6CF10930301A8
:102280000093020180910401909105019183808364
:10229000F0930501E0930401A0910201B0910301C4
:1022A0001496ED91FC911597309741F0A081B18182
:1022B0001496ED91FC9115973097C1F7CD010E94CE
:1022C000BF0592CF4231B8F42FB7F89450E0440FD5
:1022D000551FFA01EE5EFE4F91838083FA01E655A9
:1022E000FE4F7183608341E050E0FC0153834283E1
:1022F00022230CF4789408958C017B016A018FB736
:10230000F8940E9454057894E114F10441F020E01F
:1023100030E0A90160E070E0CB010E94560F8FB75A
:10232000F8940E94DF05789481E083BF8895FDCF03
:1023300097FB072E16F4009407D077FD09D00E9472
:10234000D81107FC05D03EF4909581959F4F0895D4
:10235000709561957F4F0895052E97FB1EF40094AC
:102360000E94C31157FD07D00E94EC1107FC03D057
:102370004EF40C94C31150954095309521953F4FE4
:102380004F4F5F4F089590958095709561957F4F61
:102390008F4F9F4F0895EE0FFF1F0590F491E02D92
:1023A00009940E940E12B7FF0895821B930B0895A3
:1023B000AA1BBB1B51E107C0AA1FBB1FA617B7076B
:1023C00010F0A61BB70B881F991F5A95A9F7809587
:1023D0009095BC01CD010895A1E21A2EAA1BBB1B4A
:1023E000FD010DC0AA1FBB1FEE1FFF1FA217B307E1
:1023F000E407F50720F0A21BB30BE40BF50B661FF7
:10240000771F881F991F1A9469F7609570958095BA
:1024100090959B01AC01BD01CF010895A29FB00131
:10242000B39FC001A39F700D811D1124911DB29F08
:10243000700D811D1124911D0895DC012D923D9296
:102440004D925D926D927D928D929D92AD92BD92D4
:10245000CD92DD92ED92FD920D931D93CD93DD9380
:10246000FF91EF918DB78D938EB78D938FB78D932D
:10247000ED93FD93882799270994DC01CB018130E6
:102480009105811D2D903D904D905D906D907D90BA
:102490008D909D90AD90BD90CD90DD90ED90FD9094
:1024A0000D911D91CD91DD91ED91FD910D90F894DF
:1024B000FEBF0FBEEDBFED91FD910994F894FFCFE3
:0824C000CE01CE013601EB0153
:00000001FF
